:020000040800F2
:10000000F0090020C1010008D72D00089B2A000834
:10001000D52D0008FD060008253B00080000000063
:10002000000000000000000000000000BD310008DA
:10003000010D000800000000BB310008BF310008BE
:10004000DB010008DB010008DB010008DB01000820
:10005000DB010008DB010008DB010008DB01000810
:10006000DB010008DB010008DB010008DB01000800
:10007000FD0A0008DB010008DB010008DB010008C5
:10008000DB010008DB010008DB010008DB010008E0
:1000900001070008DB010008DB010008DB010008A4
:1000A000DB010008DB010008DB010008DB010008C0
:1000B000DB010008DB010008DB010008DB010008B0
:1000C000DB010008DB010008DB010008DB010008A0
:1000D000DB010008E93A0008DB010008013B0008E9
:1000E000DB010008DB010008DB010008DB01000880
:1000F000DB010008DB010008DB010008DB01000870
:10010000DB010008DB010008DB010008DB0100085F
:10011000DB010008DB010008DB01000815340008E2
:10012000DB010008090B0008150B0008DB010008C3
:10013000DB010008DB010008DB010008DB0100082F
:10014000DB010008DB010008DB010008DB0100081F
:10015000DB010008DB010008DB0100080D3B0008A3
:10016000DB010008DB010008DB010008DB010008FF
:10017000DB010008DB010008DB01000800000000D3
:10018000DB010008DB010008DB010008DB010008DF
:10019000DB010008DB010008DB010008DB010008CF
:1001A0000000000000000000DB010008DFF80CD0B8
:1001B00000F032FA004800476D3C0008F0090020CA
:1001C0000648804706480047FEE7FEE7FEE7FEE7F1
:1001D000FEE7FEE7FEE7FEE7FEE7FEE77532000812
:1001E000AD0100082DE9F05F0546002092469B46D0
:1001F00088460646814640241BE02846414647463D
:10020000224600F08AF953465A46C01A914110D34B
:1002100011461846224600F071F92D1A67EB0108C5
:100220004F4622460120002100F068F917EB000933
:100230004E41201EA4F10104DFDC484631462A4627
:100240004346BDE8F09F40EA01039B0703D009E065
:1002500008C9121F08C0042AFAD203E011F8013BB2
:1002600000F8013B521EF9D270472DE9FE4F80463F
:1002700081EA0300C00F0C46009021F0004123F0FA
:100280000045B8EB0200A94105D240462146904600
:100290001C460B46024623F00040104347D0270D72
:1002A000C7F30A00C3F30A510290401A0190402894
:1002B0006BDAC3F3130040F4801B0098924620B120
:1002C0000023D2EB030A63EB0B0B01985946C0F1F4
:1002D0004002504600F012F906460D465046594677
:1002E000019A00F02AF910EB08006141002487EA26
:1002F000115284EAE7731A4340D0009A62B3019A1C
:10030000012A4FEA075215DC001B61EB02014FF096
:10031000004202EA0752CDE90042001C41F580117B
:1003200032462B4600F02AF903B0BDE8F08F404674
:100330002146F9E7001B61EB0201001C41F5801327
:1003400000185B412018A2F5001747EB030140EAB3
:10035000D570B6196D4111E06D084FEA360645EAD1
:10036000C0754FEA0752001B61EB0201001C41F50A
:10037000801149084FEA30000019514132462B469E
:1003800003B0BDE8F04F00F0EAB800980122400049
:100390000023D0EB020263EBE073009821464FEAA2
:1003A000E074B8EB000061EB0401E9E783F000437F
:1003B0005BE781F0004158E72DE9FE4F81EA030435
:1003C00004F0004421F0004100944FF0000B23F0B2
:1003D000004350EA01045ED052EA03045BD0C3F349
:1003E0000A54C1F30A552C44A4F2F3340194A0FB3F
:1003F0000254C1F3130141F48011C3F3130343F416
:10040000801301FB024400FB034E840A970A44EA6E
:10041000815447EA8357A4FB076802958D0A05FBC0
:1004200007854FEA932C04FB0C542705029D4FEAE5
:10043000065847EA1637B5EB08056EEB070C870E32
:10044000920E47EA811742EA8312A7FB0201B6EB3C
:100450000B0164EB00042B0D43EA0C335E1844EBF4
:100460001C50DA465146E7FB0201C5F313044FEA7C
:100470000B3343EA14534FEA0432019C43EA060368
:10048000A4F10C040294009CCDE900B400F076F8CD
:1004900003B0BDE8F08F00200146F9E70EB5C10FAB
:1004A00080EAE0700844CA07002140F233438DE837
:1004B0000E000A460B4600F061F803B000BD70B5AF
:1004C000C1F30A5201F000450024C1F3130140F2C8
:1004D000FF3341F480119A4201DA002070BD40F2EE
:1004E00033439A42A2F2334203DC524200F015F841
:1004F00000E090402C43F1D0404270BD202A04DB44
:10050000203A00FA02F1002070479140C2F1200326
:1005100020FA03F3194390407047202A04DB203A65
:1005200021FA02F00021704721FA02F3D040C2F113
:1005300020029140084319467047202A06DBCB175A
:10054000203A41FA02F043EAE07306E041FA02F38E
:10055000D040C2F12002914008431946704710B5BF
:10056000141E73F1000408DA401C41F100019218D6
:100570005B411A4301D120F0010010BD2DE9F04D7F
:1005800092469B4611B1B1FA81F202E0B0FA80F2D4
:1005900020329046FFF7B2FF04460F4640EA0A00B9
:1005A00041EA0B0153465A46084313D0114653EA19
:1005B000010019D0C8F140025046FFF7AEFF0546D2
:1005C0000E46504659464246FFF798FF084305D06D
:1005D000012004E020463946BDE8F08D00200543A7
:1005E00046EAE0762C4337430A986305E40AA0EB19
:1005F00008000022FD0A44EA47540A3002D50020D0
:100600000146E9E7010510196941DDE908450019CE
:100610006941BDE8F04DA2E7064C074D06E0E068F1
:1006200040F0010394E8070098471034AC42F6D339
:10063000FFF7C0FD0C3E00082C3E000830B52949EC
:1006400008785A284DD148785A284AD1264800229D
:1006500002704270CB781B1D05E08C5C0578521C43
:100660002C4404704270D2B29342F6D8D2B20078D1
:100670008A5C824235D18A781A48530700F1140007
:1006800008D58B885BBA0380CB885BBA43800B8923
:100690005BBA8380120721D54A8952BA00EE102A2C
:1006A000F8EE400A9FED110A80EE801A80ED021AE2
:1006B0008A8952BA12B200EE902AF8EEE00A80EE71
:1006C000801A80ED031AC98949BA09B200EE901A5E
:1006D000F8EEE00A80EE801A80ED041A818A491C47
:1006E000818230BDC4050020700000200000C84297
:1006F000014AC2E9000170475C000020FEE70000EB
:10070000014800F06BBD0000740000200749002282
:1007100001230A604A608A60CA600A614A61C1E9CD
:1007200006230E22C1E9083200F054BC3C0500202B
:10073000074900200860486008611C31087248724F
:100740008872C872087348738873C8737047000052
:1007500010050020F0B4134CDDE90465276839600A
:1007600027680021B9602768F96008213961A76806
:10077000110A3970A1684A70A268190A9170A168BB
:10078000CB70A268310A1171A1684E71A268290A62
:1007900001239171A168CD71A2682168F0BC00F0BD
:1007A000B5BB00003804002008490020082208607A
:1007B0008860C1E903023431087048708870C870DD
:1007C000087148718871C87170470000F8040020F2
:1007D0007CB5044690ED311AB0F9C2000D4600EE2A
:1007E000100AB4F9C000F8EEC00A00EE100A204664
:1007F000B8EEC00A02F074F9204600F0C3F8B4F96C
:100800003810B4F99800CDE90001B4F96830B4F9B2
:1008100008204FF400712846FFF79CFF7CBD0A7842
:100820004B7843EA0222C2808A78CB7843EA0222DC
:1008300042800A79497941EA0222828070470000A9
:100840004C480021A0F8C010A0F8C2109FED4A0A41
:1008500042F2283280ED310AA0F8CA204DF6D84283
:10086000A0F8CC204FF40072A0F8C82020F8581B44
:10087000404B20F8561C20F8541C20F8521C0C3316
:1008800020F8501CF1EE080A03F1C80240ED130AEB
:100890009FED3A1A136000ED121A1B1D536000ED14
:1008A000110A1B1D936000ED100A00ED0F0A00ED08
:1008B0000E0A40F8301C00ED0D0A20F82C1C20F820
:1008C000281C20F8261C20F8241C20F8221C20F8C4
:1008D000201C40ED070A2833D36000ED061A1B1DCB
:1008E000136100ED050A1B1D536100ED040A00EDC4
:1008F000030A00ED020A016000ED010A8180018116
:1009000041818181C1810182C0ED050A2833936153
:1009100080ED061A1B1DD36180ED070A1B1D1362B3
:1009200080ED080A80ED090A80ED0A0A016380ED76
:100930000B0A8186018741878187C187A0F8401013
:10094000C0ED110A2833536280ED121A1B1D936209
:1009500080ED130A1B1DD36280ED140A80ED150A89
:1009600080ED160A016680ED170AA0F864100449AC
:10097000816770473403002000000000CDCCCC3DDF
:10098000F92D000810B504460121603002F066FA26
:10099000B4F9CC20B4F9CA1004F1680002F07EF872
:1009A0000121204602F05AFAB4F9CC20B4F9CA1059
:1009B00004F1080002F072F8012104F1900002F045
:1009C0004DFAB4F9CC20B4F9CA1004F1980002F041
:1009D00065F8012104F1300002F040FAB4F9CC20AE
:1009E000B4F9CA1004F13800BDE8104002F056B85E
:1009F00010B5044600F086F9A06AB0F90220B0F9FB
:100A0000001004F1080002F049F8B4F90610B4F936
:100A10000000094A02F010FA04F1300000F072F907
:100A2000A06DB0F90220B0F9001004F13800BDE863
:100A3000104002F033B8000054010020204910B5E6
:100A4000202201F12000FFF7FEFB1D481438018829
:100A5000C1F30A021A49A2F580620A8042788378BB
:100A6000D20842EA4312C2F30A02A2F580624A8027
:100A70009A09C37842EA8302037942EA8322C2F3E5
:100A80000A02A2F580628A805A08437942EAC312B8
:100A9000C2F30A02A2F58062CA809A090A72C3F3FD
:100AA00001124A72C2888A810289CA8142890A82F5
:100AB000027B8A74427BCA74C089C88210BD000060
:100AC000780500200B49032008700B4800210180A5
:100AD00041808180C1808181C18101828174C17422
:100AE00001754175C1820183418100F14001C161FD
:100AF000704700006400002078050020014800F0E5
:100B00008BBD000074020020014800F085BD00008C
:100B1000D4020020014800F07FBD00001402002034
:100B200001681823CAB2103AB2FBF3F2054B6FF317
:100B30000901032A9B5CC36500D9091D816508462C
:100B400070470000EC3D000810B5014600208B699D
:100B50008A6A4FF0C07453B1B3F5005F15D072B11B
:100B6000012A0CD0022A0AD0032A09D104E01AB1C2
:100B7000012A06D0022A03D1C96AC90100D5012081
:100B800010BDC96AA142FAD010BD002AF7D0012ACF
:100B9000F2D0022AF3D0032AF3D010BD30B5046896
:100BA000256825F480252560046863608368402BF0
:100BB000036803D099600068C26030BD9A60006825
:100BC000C16030BD2DE9F0410D462DED028B04468C
:100BD000B1F9061000201331272900D2E880B5F9B9
:100BE00004101331272900D2A880B5F90010133161
:100BF000272900D22880B5F90600216800EE100AE6
:100C00003A483B4EF8EEC00A90ED020A774232466F
:100C100060EE800AFDEEE00A10EE900AA1F8C00036
:100C2000B5F90400216800EE900AF8EEE00A60EEE3
:100C3000800AFDEEE00A10EE900AA1F8C200B5F9B4
:100C40000000394600EE900A2068F8EEE00A20EE37
:100C5000800A80ED310A2068B0F9C00001F038FF49
:100C600021683246A1F8C00020683946B0F9C200B8
:100C700001F02EFF21681F4AA1F8C20020685142EE
:100C800090ED310ABDEEC00A10EE100A00B201F07C
:100C90001FFF00EE100A2068B8EEC00A80ED310A8E
:100CA0006888404200B2FFF7F9FB9FED131B53EC3D
:100CB000112BFFF781FB656841EC180B35F9900F9C
:100CC000FFF7ECFB53EC182BFFF7CFFAFFF7F7FB1E
:100CD00000B228806FF0AE02AF2101F0F9FE61682A
:100CE000A1F89000BDEC028BBDE8F081200000204F
:100CF000C0E0FFFF78ECFFFF7B14AE47E17A943F42
:100D00007047000010B5B0F90010B0F90620891A3C
:100D100000EE101AB8EEC00A80ED060AD0ED080AFF
:100D200030EE800A80ED080A9FED611ADFED610A5E
:100D300001F0BFFE80ED080A90ED060AD0ED070A2B
:100D40005D4970EE600AC1ED080A02F087FFD1ED3F
:100D5000050AB4EEE00AF1EE10FA04DD90ED030AA4
:100D6000D1ED020A67E090ED060AD1ED080A60EEC7
:100D7000200AF5EEC00AF1EE10FA27DD02F06EFF50
:100D8000D1ED060AB4EEE00AF1EE10FA0EDD90EDB8
:100D9000030AD1ED030A30EE200AD0ED060A20EE58
:100DA000200ABDEEC00A10EE102A0A80D0ED030A18
:100DB00090ED060A60EE800AFDEEE00A10EE902A41
:100DC00012B20A800281D0ED070A18E0D0ED070ABE
:100DD00020EE201AB5EEC01AF1EE10FA04DAB5EEE4
:100DE000C00AF1EE10FA10D190ED031A21EE001AAC
:100DF000BDEEC11A11EE102A12B20A800281C0EDB6
:100E0000090A80ED070A104610BDD0ED090A60EE10
:100E1000200AF5EEC00AF1EE10FA47D202F01EFFEA
:100E2000D1ED070AB4EEE00AF1EE10FA06DD90ED1E
:100E3000030AD1ED040A70EE200AB9E790ED060A24
:100E400002F00CFFD1ED070AB4EEE00AF1EE10FA61
:100E50002CD290ED030AD0ED060A20EE200ABDEE5A
:100E6000C00A10EE103A0B8090ED040A90ED081ABB
:100E700020EE010ABDEEC00A10EE104A8C8090ED03
:100E8000050A91ED081A20EE010ABDEEC00A10EE27
:100E9000102A4A801919114409B2018190ED070AFC
:100EA00080ED090AC0ED070A084610BD002010BDFC
:100EB00000007AC400007A442C000020074800217A
:100EC0009FED070A01804180818080ED020A80ED5C
:100ED000030A80ED040A818270470000D8050020D3
:100EE0000000000090F82020012A09D090F820206E
:100EF000022A05D0416A41F48021416201207047F5
:100F0000006842690A43426100207047F0B590F8DA
:100F10002040012C07D090F82040022C03D0416AD9
:100F200041F4802153E00468A5686D0105D4A568EB
:100F30002D0102D4A568ED0046D5A4680125C4F3AF
:100F40000164A5401D608D684FF4C0739DB1CE68EB
:100F500035434E6845EAC605066803EB0417F551AC
:100F60004FF4C275076805EB04150E697E51097DC3
:100F7000012905D009E00E88CD6845EA4655EBE722
:100F800001684E5946F480764E511179D2F80550D9
:100F90004FF4C67641EA0521056806EB0416A9510F
:100FA0001178D2F801204FF4C47541EA0221026899
:100FB00005EB04155151006803EB0411425842F04F
:100FC000010242500020F0BD416A41F4001141622B
:100FD0000120F0BD10B590F82020012A09D090F82A
:100FE0002020022A05D0416A41F48021416201207B
:100FF00010BD3A48D0F8002242F00102C0F80022A9
:10100000D0F8002222F47C52C0F80022D0F800224E
:101010004B6A42EA0322C0F800220B7D01229A406B
:10102000D0F81C329343C0F81C32CB69B3B9D0F866
:101030000C329343C0F80C328C894B6864F31F4325
:101040004C6900EBC404C4F840320C890B6864F3AB
:101050001F434C6900EBC404C4F84432CB69012B34
:1010600016D1D0F80C321343C0F80C320C884B6800
:1010700064F31F434C6900EBC404C4F840320C898C
:10108000CB6864F31F434C6900EBC404C4F84432DA
:101090008B69002BD0F804320ED01343C0F8043211
:1010A0000B69002BD0F8143208D01343C0F8143267
:1010B000096A012904D008E09343EFE79343F5E779
:1010C000D0F81C121143C0F81C12D0F8001221F005
:1010D0000101C0F80012002010BD000000640040B3
:1010E000704730B590F82040012C07D090F8204090
:1010F000022C03D0416A41F4802109E011B1012999
:1011000009D00CE00468E46807E0416A41F400118A
:101110004162012030BD04682469A407F5D04FF472
:10112000D874056804EB01142D5915F00405956079
:1011300005682D5942D0ED08556005682C59C4F357
:101140004004D4604FF4DA74056804EB01142D599F
:1011500005F00F05156105682D59C5F30725956143
:1011600005682C59240C54614FF4DC72046802EBBE
:101170000112A4581C700468A458240A5C70046806
:10118000A458240C9C700468A258120EDA704FF414
:10119000DE72046802EB0112A4581C710468A458A2
:1011A000240A5C710468A458240C9C710468A25839
:1011B000120EDA7129B1012909D00DE06D0D15600B
:1011C000BBE70068C16841F02001C16004E000682D
:1011D000016941F020010161002030BD2DE9F05F7F
:1011E0000546006800244669D0F804908768D0F866
:1011F0000CB0D0F810A0D0F81880F10748D0F9074B
:1012000014D001218160B80703D5284600F0EBF91E
:101210000CE0780702D54FF4006407E0380702D5E8
:101220004FF4805402E0284600F0DCF9F80516D5AA
:1012300029684FF480708860B80503D5284600F00F
:10124000D4F90CE0780502D544F4005407E03805E1
:1012500002D544F4804402E0284600F0C5F9F803C2
:1012600016D529684FF480308860B80303D5284626
:1012700000F0BDF90CE0780302D544F4004407E027
:10128000380302D544F4803402E0284600F0AEF979
:10129000300707D55FEACB6004D52968102044F4F5
:1012A0000074C86070074FF0080707D55FEA0B703D
:1012B00004D52868C760284600F048F9B00706D56D
:1012C0002868C068800702D0284600F041F97006FF
:1012D00007D55FEACA6004D52968102044F4806409
:1012E0000861B00607D55FEA0A7004D5286807616F
:1012F000284600F047F9F00606D5286800698007FF
:1013000002D0284600F03FF9B00308D55FEAC96073
:1013100005D5296810204860284600F035F9F0030B
:1013200007D55FEA097004D528684760284600F0B1
:101330005FF9300446D55FEA497040D5F00504D521
:101340005FEAC87001D044F00104B00504D55FEA3B
:10135000887001D544F00204700504D55FEA487036
:1013600001D544F00404300529D518F0700F26D0BB
:1013700008F07000402815D006DC102809D020287D
:101380000AD0302816D10AE050280ED0602811D19A
:101390000EE044F008040DE044F010040AE044F0CC
:1013A000200407E044F0400404E044F0800401E03D
:1013B00044F480742868816921F070018161296892
:1013C00004204860002C05D0686A204368622846E3
:1013D000FFF786FEBDE8F09F70B5040003D094F8D7
:1013E000200010B104E0012070BD204600F082F81A
:1013F0002068016821F00201016000F081FB0546D0
:10140000052604E000F07CFB401B0A2811D8206868
:1014100040688007F6D42068016841F0010101604E
:1014200000F06EFB05460BE000F06AFB401B0A284B
:1014300006D9606A40F40030606284F82060D2E728
:1014400020684068C007EFD0207E0128206801682E
:101450003DD021F080010160607E01282068016894
:1014600038D021F040010160A07E01282068016889
:1014700033D021F020010160E07E0128206801685E
:101480002ED041F010010160207F01282068016802
:1014900029D021F008010160607F012820680168DF
:1014A00024D021F004010160D4E902010843D4E909
:1014B0000412114308436168491E08432168C8614A
:1014C00000206062012084F82000002070BD41F0FF
:1014D0008001C0E741F04001C5E741F02001CAE7C3
:1014E00021F01001CFE741F00801D4E741F00401F9
:1014F000D9E7000000B50068114987B088421DD1C6
:101500001048016841F0007101600068022100F09C
:10151000007005900320CDE900010121CDE9021002
:10152000092004906946084800F0FEF900220221D3
:10153000142000F07BFB142000F06CFB07B000BD12
:101540000064004040380240000C02407047000038
:1015500010B5094A016891420CD10849D1E901232B
:1015600000210833FFF7BDFDBDE8104003490448E2
:1015700001F0F8BD10BD00000064004038040020F8
:101580005C000020704770477047000070B504464B
:1015900090F82000012804D0606A40F400206062C6
:1015A00018E0022084F820002068016821F0010181
:1015B000016000F0A5FA05460EE000BF00F0A0FAB9
:1015C000401B0A2808D9606A40F400306062052098
:1015D00084F82000012070BD20684068C007EDD16C
:1015E000606270BD704770477047704770477047C2
:1015F000704790F83510022903D080214165012001
:101600007047052180F835100068016821F001015C
:1016100001600020704700002DE9F84304464FF0B8
:101620000009CDF8009063484FF41651A56D00688D
:10163000B0FBF1F72E6894F85C10082000FA01F175
:1016400031420FD021680A6852070BD50A6822F090
:1016500004020A6094F85C108840A860606D40F055
:101660000100606594F85C104FF0010808FA01F081
:10167000304208D021684969090604D5A860606D28
:1016800040F00200606594F85C100420884030420D
:1016900008D021680968890704D5A860606D40F00A
:1016A0000400606594F85C1010208840304218D027
:1016B00021680968090714D5A860206801684903F2
:1016C00004D50068000308D5A16C07E00168C905CE
:1016D00003D4016821F008010160216C09B12046A2
:1016E000884794F85C1020208840304231D021682F
:1016F0000968C9062DD5A86094F83500052820682A
:10170000016806D0490347D5006800031DD4616C09
:101710001CE021F0160101602068416921F0800180
:101720004161206C08B9A06C20B12068016821F0EB
:101730000801016094F85C103F208840A86084F89C
:10174000349084F83580216D1FE0E16B09B12046AB
:101750008847606D00282BD0606DC00714D005202D
:1017600084F835002068016821F0010101600098CB
:10177000401C0090B84203D820680068C007F6D12A
:1017800084F8349084F83580E16C002910D001B0E1
:101790002046BDE8F04308470168C905D5D4016873
:1017A00021F01001016084F8349084F83580CCE792
:1017B000BDE8F8830C0000202DE9F041044600F05C
:1017C0009FF906465CB1002584F83450022084F865
:1017D00035002068016821F0010101600DE0012061
:1017E000BDE8F08100F08CF9801B052805D9202088
:1017F0006065032084F83500F2E720680068C007C0
:10180000F0D12268116820480140D4E9010318434F
:10181000D4E903363343184363691843A369184373
:10182000E3691843236A18430843616A042903D112
:10183000D4E90B1319430843106020684069666AB5
:1018400020F0070130460E43012704280CD1A06A7E
:101850000643E06A40B12046FFF776F920B1402008
:10186000606584F83570BAE7206846612046FFF766
:1018700057F994F85C203F2191408160656584F8B8
:1018800035700020ACE700003F8010F02DE9F041FA
:101890000446866D90F83400002501280DD0012003
:1018A00084F8340094F835700020012F07D084F8B4
:1018B000340002252846BDE8F0810220FBE702271C
:1018C00084F8357060652046FFF768F994F85C107D
:1018D0003F208840B0602068016841F01601016037
:1018E0002068416941F080014161206C20B120688D
:1018F000016841F0080101602068016841F00101C0
:101900000160D7E770B5044600F0FAF80546601CA0
:1019100002D004480078044400F0F2F8401BA042D2
:10192000FAD370BD000000202DE9F84FDFF890B128
:1019300000224FF001084FF0030A4FF00F090BF19E
:10194000040E00BF0B6808FA02F42340A3426ED1D4
:101950004D68022D01D0122D0ED1D50800EB850C5B
:10196000DCF820505607F70E09FA07F6B5430E6962
:10197000BE402E43CCF82060066855000F790AFA65
:1019800005FC07F0030726EA0C06AF403743076063
:101990004E68012E05D0022E03D0112E01D0122E3A
:1019A0000ED18768CE6827EA0C07AE403E438660BA
:1019B0004668A6430C79C4F3001494403443446051
:1019C000C4688E6824EA0C04AE402643C6604C68A6
:1019D000E4006FD53B4C256845F4804525602468BC
:1019E00022F0030504F480440094374C2E19D6F8F5
:1019F000084895072F0F09FA07F5AC43334DA84265
:101A000001D100252EE0324DA84201D1012529E067
:101A1000304DA84201D1022524E02F4DA84201D12A
:101A200003251FE02D4DA84202D104251AE041E014
:101A30002B4DA84201D1052514E02A4DA84201D121
:101A400006250FE0284DA84201D107250AE0274DC1
:101A5000A84201D1082505E0254DA84201D109255C
:101A600000E00A25BD402543C6F80858DBF80040D1
:101A70005D464E689C43F60300D51C432C60DEF89F
:101A8000004075464E689C43B60300D51C432C604D
:101A90000B4D08352C684E689C43F60200D51C435C
:101AA0002C60074D0C352C684E689C43B60200D55F
:101AB0001C432C60521C102AFFF444AFBDE8F88F81
:101AC000003C014044380240003001400000024028
:101AD0000004024000080240000C024000100240D6
:101AE0000014024000180240001C02400020024086
:101AF000002402400AB1816170470904FBE700003D
:101B0000014880687047000000000020024881689A
:101B10000278114481607047000000200B4810B526
:101B2000016841F400710160016841F48061016065
:101B3000016841F480710160032000F097F80020F3
:101B400000F006F800F024F8002010BD003C024030
:101B500070B50D4D04464FF47A712878B1FBF0F062
:101B60000A490968B1FBF0F000F055FB48B9102CA8
:101B700007D200222146501E00F058F800206C6069
:101B800070BD012070BD0000000000200C0000208E
:101B90001F4808B5016841F480410160006800F405
:101BA000804000901A48001F016841F08051016098
:101BB000006800F080500090032000F057F80022E9
:101BC00011466FF00B0000F031F8002211466FF063
:101BD0000A0000F02BF8002211466FF0090000F017
:101BE00025F800221146501F00F020F8002211466F
:101BF000101F00F01BF800221146901E00F016F88E
:101C00000022BDE808401146501E00F00FB8000049
:101C10004438024000F01F02012191404009800039
:101C200000F1E020C0F8001170470000F0B40E4B46
:101C30001B680C46C3F30223C3F10705042D00D92A
:101C40000425191D072901D2002300E0DB1E01260F
:101C500006FA05F1491E214099409E40761E164025
:101C60003143F0BC01F0B8B80CED00E0064900F0DB
:101C7000070208684FF6FF03184040EA0220034AB3
:101C800010430860704700000CED00E00000FA050A
:101C90002DE9F8431748016841F080510160006860
:101CA000154F00F08050012600903E64FFF728FF9A
:101CB00005464FF47A78114C05E000BFFFF720FF8E
:101CC000401B40450DD86068C003F7D57E64FFF720
:101CD00017FF0546464607E0FFF712FF401BB042DC
:101CE00002D90320BDE8F88360688003F4D50020A2
:101CF000F8E700004038024000000E42007000404B
:101D00002DE9F0470E46050065D0DFF81481D8F8BC
:101D10000000F7B200F00F00B04207D288F8007060
:101D2000D8F8000000F00F00B04254D128683D4CB4
:101D3000810712D5400703D5206840F4E0502060A9
:101D40002878000703D5206840F4604020602068B0
:101D5000A96820F0F000084320602878C0072DD043
:101D6000304968680839012812D0022813D00328A6
:101D700011D00968890700292DDA216821F00301B3
:101D800001432160FFF7BCFE814641F2883A0EE034
:101D900009688903EFE709688901ECE7FFF7B0FEFE
:101DA000A0EB0901514502D90320BDE8F087206866
:101DB000696800F00C00B0EB810FEFD1D8F800108B
:101DC000404601F00F01B14207D90770006800F0EA
:101DD0000F00B04201D00120E7E72878400705D581
:101DE0002068E96820F4E050084320602878000764
:101DF00006D52068296920F4604040EAC1002060CF
:101E000000F03CF82168084AC1F30311515CC84056
:101E1000064908600020FFF79BFE0020C5E7000090
:101E2000003C024008380240F43D00080C0000204D
:101E300001480068704700000C0000200448054974
:101E400000680968044AC1F38221515CC8407047A8
:101E50000C00002008380240043E000804480549F0
:101E600000680968044AC1F34231515CC8407047B8
:101E70000C00002008380240043E0008154810B548
:101E8000006810F00C02144813D01449042A0FD033
:101E9000082A0ED10F4C241F2268236802F03F024B
:101EA0005B0207D52068C0F38810A0FB010106E0A3
:101EB000084610BD2168C1F38811A1FB0001002371
:101EC000FEF790F92168C1F30141491C4900B0FBBC
:101ED000F1F010BD083802400024F400001BB700E8
:101EE0002DE9F84F050076D02878DFF8F8B2BE4C1F
:101EF000C00749D0DBF800105846C1F38101012921
:101F000008D00068C0F3810002280AD1201D0068B3
:101F1000400206D52068800336D568680028E2D0E4
:101F200032E06868B0F5803F10D0B0F5A02F20688F
:101F300010D020F480302060206820F480202060C1
:101F40006868A0B1FFF7DCFD06460CE0206840F4AD
:101F50008030F4E740F480202060F7E7FFF7D0FD01
:101F6000801B642873D820688003F7D50CE0FFF746
:101F7000C7FD064605E000BFFFF7C2FD801B6428D1
:101F8000F0D820688003F7D42878DFF860828007D3
:101F90004FF000093ED5DBF80010584611F00C0F49
:101FA00009D00068C0F3810002280BD18D48001FC2
:101FB0000068400206D42068800715D5E86801282B
:101FC00009D111E0E868B8B10120C8F80000FFF7B6
:101FD00097FD064605E002E1FFF792FD801B02280F
:101FE000C0D820688007F7D52068296920F0F8005C
:101FF00040EAC10020600DE0C8F80090FFF780FDC6
:10200000064604E0FFF77CFD801B02281FD82068ED
:102010008007F7D42878000722D5724E7448696982
:102020006C3671B101210160FFF76AFD074604E0DB
:10203000FFF766FDC01B022809D830688007F7D576
:102040000EE0C0F80090FFF75BFD074605E083E077
:10205000FFF756FDC01B02287ED830688007F7D4F2
:102060002878400768D5DFF87CA100270AF1380AF4
:10207000DAF80000C0000BD4DAF8001041F080510B
:10208000CAF80010DAF80000012700F08050009034
:10209000584E3068C00510D4306840F4807030600D
:1020A000FFF72EFD009005E0FFF72AFD0099401A8A
:1020B000022851D83068C005F6D54A4EA86868365F
:1020C00001280FD00528306810D020F001003060C2
:1020D000306820F004003060A868B8B1FFF710FD48
:1020E00000900FE0306840F00100F4E740F0040099
:1020F0003060F7E7FFF704FD0099411A41F288309C
:10210000814264D830688007F4D50EE0FFF7F8FC10
:10211000009007E0FFF7F4FC0099411A41F2883083
:10212000814254D830688007F4D42FB1DAF8001017
:1021300021F08051CAF80010A869C0B3DBF8001084
:10214000C1F3810102294AD00228484607D0C8F8C5
:102150006000FFF7D5FC00E039E005463AE047466D
:10216000C8F86000FFF7CCFC064604E0FFF7C8FCA7
:10217000801B02282BD820688001F7D4D5E90701FD
:102180000843A96A1C4A490802EB01416A6A41EA0C
:102190008211084395F82C1040EA01611148001F94
:1021A000016001203866FFF7ABFC054605E014E04E
:1021B000FFF7A6FC401B022809D820688001F7D54C
:1021C0000BE000BFFFF79CFC401B022802D9032054
:1021D000BDE8F88F20688001F4D40020F8E70120E2
:1021E000F6E700000838024000380240000047428D
:1021F000800E4742007000400000FFFF4FF0E021DA
:102200000428086903D020F004000861704740F0FA
:102210000400FAE7704710B5401EB0F1807F01D38B
:10222000012010BD4FF0E02460610F21601700F025
:10223000D3FD0020A06107202061002010BD10B553
:10224000FFF7E8FF10BD7047704710B590F83820D1
:10225000012A25D0012280F83820CA688C6822F42F
:10226000407222434C6822F4806222430C6822F4BC
:10227000006222430C6922F4805222434C6922F40A
:10228000005222438C6922F48042224322F400410E
:10229000026800232143516480F83830002010BDCB
:1022A000022010BD30B590F83820012A20D001223C
:1022B00080F83820022380F8393003685C6824F005
:1022C00070045C6003685C680D682C435C600368A4
:1022D0009C6824F080049C6003689C6849680C43F7
:1022E0009C6080F83920002180F83810084630BD05
:1022F000022030BD10B5040003D094F8390010B1AD
:1023000007E0012010BD002084F83800204600F0CE
:102310000DF8022084F83900211D206801F084F8AE
:10232000012084F83900002010BD000008B50068C5
:102330000B49884212D10B48016841F0200101602D
:102340000068002200F02000009003213720FFF7F2
:102350006DFCBDE808403720FFF75CBC08BD0000FD
:1023600000140040403802400168CA6842F001028F
:10237000CA600068016841F00101016000207047F7
:10238000704770B50446006801694FF00005C94305
:10239000890715D4C168C943890711D4E91E0161B1
:1023A00001202076206880698007204602D0FFF750
:1023B000E7FF04E000F0B2F8204600F047F9257688
:1023C00020680169C943490717D4C168C94349074F
:1023D00013D46FF004010161022020762068806927
:1023E00010F4407F204602D0FFF7CAFF04E000F05F
:1023F00095F8204600F02AF9257620680169C9433E
:10240000090716D4C168C943090712D46FF008013F
:102410000161042020762068C0698007204602D030
:10242000FFF7AEFF04E000F079F8204600F00EF967
:10243000257620680169C943C90617D4C168C94314
:10244000C90613D46FF010010161082020762068BE
:10245000C06910F4407F204602D0FFF791FF04E0EE
:1024600000F05CF8204600F0F1F82576206801695C
:10247000C943C90708D1C168C943C90704D1891E26
:102480000161204600F000F920680169C94309068E
:1024900009D4C168C943090605D46FF08001016100
:1024A0002046FFF7D0FE20680169C943490609D4D8
:1024B000C168C943490605D46FF040010161204657
:1024C00000F0EAF820680169C94389060BD4C168A5
:1024D000C943890607D46FF0200101612046BDE899
:1024E0007040FFF7B1BE70BD00B50068094985B006
:1024F00088420DD14FF4C04000900220019000208E
:10250000029003900120049069460348FFF70CFAFB
:1025100005B000BD0000014000100240704770B5DA
:10252000044690F838000D4601280DD0012684F8A5
:102530003860022084F8390042B1042A18D0082AF1
:102540002AD00C2A4DD139E0022070BD206800F05D
:10255000D7FF2068816941F00801816120688169A5
:1025600021F004018161206881692A69114311E029
:10257000206800F0F1FF2068816941F40061816109
:102580002068816921F480618161206881692A69FC
:1025900041EA0221816124E0206801F00FF82068FF
:1025A000C16941F00801C1612068C16921F00401DD
:1025B000C1612068C1692A69114311E0206801F0F6
:1025C0002DF82068C16941F40061C1612068C169CA
:1025D00021F48061C1612068C1692A6941EA022150
:1025E000C16184F83960002084F8380070BD10B5EE
:1025F000040003D094F8390010B107E0012010BDA9
:10260000002084F83800204600F00CF8022084F8FE
:102610003900211D206800F007FF012084F83900EF
:10262000002010BD08B500680649884208D1064858
:10263000016841F001010160006800F001000090B4
:1026400008BD00000000014044380240704700000F
:1026500010B504460068012200F046FF08492068D2
:10266000884202D00749884203D1416C41F40041BD
:1026700041642068016841F001010160002010BD43
:1026800000000140000401400249884201D100F0ED
:102690001BBE7047D80000207047704770B50268B5
:1026A00004461068D168536910F00F0F50D003F042
:1026B000010501F4907635435DD0C20705D0CA0507
:1026C00003D5E26B42F00102E263420705D5DA0767
:1026D00003D0E26B42F00202E263820705D5DA071B
:1026E00003D0E26B42F00402E263020705D5DA0789
:1026F00003D0E26B42F00802E263E26B002A33D0BF
:10270000800604D5880602D5204601F01EF8206810
:102710004069E16BC0F38010090700D428B320465C
:1027200000F0FCFF2068416949061AD5416921F093
:1027300040014161606BA0B11B490165606BFEF710
:1027400058FF002810D0606B016DBDE8704008474D
:10275000830610D58B060ED52046BDE8704000F0EC
:10276000F4BF2046FFF799FF70BD2046FFF795FFA5
:102770000020E06370BD030606D50B0604D5204695
:10278000BDE8704001F07EB94006F3D54806F1D5AA
:10279000D168204621F04001D160202184F8391011
:1027A00000F07AF970BD00007D36000870B50400B5
:1027B00004D094F83900002510B106E0012070BD66
:1027C00084F83850204600F023F8242084F839009B
:1027D0002068C16821F40051C160204600F0FCFF70
:1027E0002068016921F4904101612068416921F06C
:1027F0002A0141612068C16841F40051C160E5636C
:10280000202084F8390084F83A00002070BD0000D0
:102810002DE9F04F0546D0F800C064480024DFF8E9
:1028200090910221012203230727061587B04FF05C
:10283000006A4FF4003B84452FD1D9F800C04CF01A
:10284000100CC9F800C0D9F8000000F01000059085
:10285000C0208DE88F0069465648FFF765F8574F4E
:1028600055483860C7E901A4C7E903467C61BC61EB
:10287000C7E9074B38467C62FEF79EFF20B140F265
:102880001D114FA001F0DAF96F630022012125200C
:10289000BD63FFF7CBF925204CE04548DFF83C81CC
:1028A000001FDFF83CE1C44511D1046844F4003452
:1028B0000460006800F40030059060208DE88F000F
:1028C00069467046FFF730F807B0BDE8F08FDFF8D3
:1028D0001481C44531D1D0F800C04CF4802CC0F82C
:1028E00000C0006800F4802005904FF440708DE82F
:1028F0008F0069467046FFF717F83C4F3A4838603A
:10290000C7E901A4C7E903467C61BC61C7E9074B7D
:1029100038467C62FEF750FF20B140F2611128A0DA
:1029200001F08CF96F63002201212720BD63FFF7BE
:102930007DF92720FFF76EF9C6E72D488445C3D1FE
:10294000D9F8007047F02007C9F80070D9F80000E6
:1029500000F0200005904FF484408DE80F0008201F
:10296000049069462348FEF7DFFF1348224F1838CA
:1029700038608005C7E90104C7E903467C61BC6192
:10298000FC613C6238467C62FEF716FF20B14FF4D2
:10299000C7710BA001F052F96F630022022147209A
:1029A000BD63FFF743F94720C4E700000010014072
:1029B00044380240000402404064024014020020F7
:1029C0002E2E2F5372632F73746D333266347878E2
:1029D0005F68616C5F6D73702E630000004400409F
:1029E000000C0240004800402860024074020020B1
:1029F0000014014000180240D4020020F8B504463B
:102A000090F83A0020283CD1C1B3BAB394F838000A
:102A1000012836D0012084F83800A162A285002563
:102A2000E563222084F83A00636B1748D863636B30
:102A300016481864636B1648D864606B13460565C6
:102A40000846666B216802463046091DFEF71EFFE8
:102A5000206801684168009184F83850C16841F4E9
:102A60008071C1602068416941F0010141612068C5
:102A7000416941F0400141610020F8BDFFE70120BC
:102A8000FBE70220F9E70000D736000813370008FB
:102A90008D360008704770477047FEE7B0F9003088
:102AA0008B4200DC19460180914200DB0A4602801D
:102AB0007047B4EEE00AF1EE10FA01DDB0EE600A04
:102AC000B4EEC10AF1EE10FA01D2B0EE410A70473D
:102AD000884200DD0846904200DA10467047000048
:102AE00070EE201A30EE600AF0B531EE812A70EEF9
:102AF000010A30EE410A0023BDEEC22AFDEEE00AD3
:102B0000BDEEC00A12EE101A10EE902A0DB23B492B
:102B1000A1F108040D804A8010EE102A31EEC10A9E
:102B20008A80BDEEC00A10EE102ACA80A4F80030D8
:102B300031F91320002A01DD164600E05642B4F9AF
:102B40000070BE4203DD002A00DC524222805B1C82
:102B5000DBB2042BECD3B4F90020B2F5FA5F40DD10
:102B600000EE102A9FED261AF8EEC00A81EE200A28
:102B700000EE905AF8EEE00A84ED010A20EE800A99
:102B8000BDEEC00A10EE102A0280B1F9022000EE5C
:102B9000102AF8EEC00A94ED010A60EE800AFDEEFC
:102BA000E00A10EE902AA0F86020B1F90420524209
:102BB00000EE902AF8EEE00A60EE800AFDEEE00AF0
:102BC00010EE902A0286B1F90610494200EE901AE2
:102BD000F8EEE00A20EE800ABDEEC00A10EE101AF0
:102BE00008E005804A88A0F860208A885242028660
:102BF000C9884942A0F89010F0BD000018000020DC
:102C00000000FA450F4810B50D49016009214160E7
:102C100000214FF04072C0E902124FF4803202618D
:102C2000120142610176012242768176C1760177F6
:102C30004177FEF7D1FB002800D0FEE710BD000071
:102C40000064004074000020154808B5016841F494
:102C500000110160016801F400110091016841F464
:102C6000800101600068002200F48000009011469D
:102C70000C20FEF7DBFF0C20FEF7CCFF00221146F4
:102C80003920FEF7D3FF3920FEF7C4FF00220121CF
:102C90003A20FEF7CBFFBDE808403A20FEF7BABF66
:102CA0003038024070B5234886B00024016841F0F6
:102CB00040010160016801F040010591016841F0A7
:102CC00001010160016801F001010591016841F015
:102CD00002010160016801F002010591016841F003
:102CE00008010160016801F008010591016841F0E7
:102CF00080010160016801F080010591016841F0E7
:102D00001001016000680C4E00F010004FF40055F7
:102D10000590002229463046FEF7ECFE0120009582
:102D2000CDE90104694630460394FEF7FDFD06B087
:102D300070BD0000303802400018024010B5244831
:102D400090B022490160B3210024C0E9011444F687
:102D50001F61C0E903144461FFF749FC00B1FEE7BD
:102D60000E940EA91A480F94FFF79CFA00B1FEE7E3
:102D7000602000904FF47A70CDE901040420CDE981
:102D8000034005940822694611480694FFF7C7FBE3
:102D900000B1FEE70C2269460D48FFF7C0FB00B109
:102DA000FEE70794089409944FF400500A94CDE983
:102DB0000B4007A906480D94FFF747FA00B1FEE75C
:102DC0000348FFF791FB10B010BD00000000014068
:102DD0009C000020FEE770470907090E002806DA6C
:102DE00000F00F0000F1E02080F8141D704700F1A2
:102DF000E02080F800147047064951F8202001EBCC
:102E0000800082ED000A4168C1ED000A806880ED13
:102E1000001A704708040020064951F8202001EBF1
:102E2000800082ED000A4168C1ED000A806880EDF3
:102E3000001A7047E004002008B5030A8DF800303E
:102E40008DF80100080A8DF802008DF80310134672
:102E500004226946A12000F08DFF08BD00B5E1B154
:102E6000012954D1B0F90010B0F90220891A00EEFE
:102E7000101AB8EEC00A80ED060A00F073FFF0EEFB
:102E8000400A90ED070A00F06DFFF4EEC00AF1EE83
:102E900010FA3DD390ED070A3EE0B0F90010B0F90A
:102EA0000620891A00EE101A3B4AF8EEC00AC0ED5F
:102EB000060A90ED080A30EE200A10EE101A80ED96
:102EC000080A914201DD9FED350A354A10EE101ACD
:102ED00080ED080A914201D99FED320A80ED080A7F
:102EE00090ED031AD0ED041A21EE201A01EE801A9B
:102EF00090ED070AD0ED051A30EEC00A01EE801AF7
:102F0000BDEEC10A10EE101A0181C0ED070A00BD26
:102F100090ED060A80ED070A00F024FFF0EE400A6B
:102F200090ED090A00F01EFFF4EEC00AF1EE10FA6F
:102F300003D290ED070A80ED090A90ED060AD0ED64
:102F4000070AD0ED031AB0EE002A30EE601AB0F98D
:102F5000081021EE211AD0ED041A01EE801AF0EECD
:102F6000401A40EEC21A90ED092A71EE821A90EDD5
:102F7000052A02EE211A01EE901AF8EEE11A31EE5E
:102F8000211ABDEEC11A11EE101A0181C0ED090A15
:102F900080ED070A00BD000000007A4400007A447A
:102FA00000007AC400007AC430B50A784B78120267
:102FB00012B21A430E4B0F4D5A800C79497941EAEF
:102FC00004248480B3F90040111BA94202DA818DE8
:102FD000491C8185A11AA94202DA818D491E818589
:102FE0001A8090F82C1002EB4131C18030BD0000F6
:102FF0005000002090E8FFFF7CB50D46044600F02D
:1030000091F82046FDF7F4FC002000900190B4F9FF
:103010000830B4F9382040F2FF112846FDF79AFB3A
:103020007CBD000030B53B489FED390AFBEE0E0A2F
:1030300080ED060A80ED080A00F19C02C0ED030A4B
:1030400000F10C01116080ED040A091D516080ED52
:10305000050A091D916080ED070A00210181418068
:10306000C180818040F62C1303802B4C41F28833C1
:1030700084622380856A5C42FBEE040A6C80818551
:1030800080ED120A80ED140AC0ED0F0A00F13C0534
:10309000D56080ED100A2D1D156180ED110A2D1DE2
:1030A000556180ED130A01874186C186818640F60D
:1030B00078720286184AFEEE080A121D8265138095
:1030C000826D5480A0F85C10A0F86C10C0ED1C0A52
:1030D00080ED1D0A80ED1E0A80ED1F0A80ED200A9A
:1030E00080ED210A80ED220A80ED180A80ED190A90
:1030F00080ED1A0AA0F89010A0F89210E10DA0F847
:1031000094100649C0F88C100549C0F8981030BDDD
:10311000000000004404002054000020D8050020D6
:10312000192E000810B50E4C40F6D402B4F89000E9
:1031300000F62C1000B22080B4F8921001F67871DD
:10314000218640F63221FFF7C3FC2080B4F930001D
:1031500040F6E44241F2F811FFF7BAFC208610BDB8
:10316000440400204A6882B012680092A2F2012250
:10317000062A20D2DFE802F003060A0E1519896834
:1031800000680AE000688968603006E000688968C5
:10319000903002E0006889683030083102B0FDF7F5
:1031A0003EBB40688968303001E08968406808317A
:1031B00002B0FFF7F9BE02B070477047704710B514
:1031C000FEF7A4FCBDE81040FFF739B830B527483A
:1031D00093B00025016841F080510160006800F063
:1031E000805011902248016841F44041016000681C
:1031F000022400F44040119001200090000401904E
:103200008001CDE9064006200890B420CDE90904EC
:1032100004200B906846FEF763FE00B1FEE7FEF760
:1032200037FD00B1FEE70CA90F2081E831004FF413
:10323000A0500F904FF48050109005210CA8FEF77D
:103240005FFD00B1FEE7FEF7F3FD4FF47A71B0FBCE
:10325000F1F0FEF7E0FF0420FEF7D0FF0022114658
:10326000501EFEF7E3FC13B030BD000040380240B2
:10327000007000401048016841F4700101600F487F
:10328000016841F0010101600C4A0021083211601F
:1032900002680B4B1A400260031D0A4A1A6002685A
:1032A00022F48022026005480C3001600249580671
:1032B000803908607047000088ED00E00038024067
:1032C000FFFFF6FE1030002430B54A484A4C2DED81
:1032D000028B83B0007A9FED498A012851D00228E1
:1032E0004BD1474DB0EE481AF0EE480A55F8981FFA
:1032F000B0EE480A032088472968B0EE481AF0EE7D
:10330000480AB0EE480A0020884754F8D01FB0EEB3
:10331000481AF0EE480AB0EE480A062088472168AD
:10332000B0EE481AF0EE480AB0EE480A002088478E
:103330002168B0EE481AF0EE480AB0EE480A0920BB
:1033400088472168B0EE481AF0EE480AB0EE480A05
:103350000320884700240094234622464FF400713E
:1033600028480194FDF7F6F9002300941A4640F22C
:10337000FF1124480194FDF7EDF903B0BDEC028B79
:1033800030BD1C492048FDF71DFC1E491C48FFF7B5
:1033900033FEDFED1E8A54F8D01FB0EE481AF0EE6F
:1033A000680AB1EE080A062088472168B0EE481A7C
:1033B000F0EE680AB1EE080A002088472168B0EEF6
:1033C000481AF0EE680AB1EE080A09208847216819
:1033D000B0EE481AF0EE680AB1EE080A03208847FA
:1033E00008490548FDF7F4F909494FF47A70C863B4
:1033F0000864C2E7780500203403002000000000C4
:1034000044040020740000205C000020CDCCCC3DA2
:103410000000014010B5FFF757FFBDE8104001481C
:10342000FEF7AFBFD8000020F0B50268234B244D53
:10343000244E254F254C4FF0804C984209D06045D2
:1034400007D0A84205D0B04203D0B84201D0A04274
:1034500004D122F0700E4A6842EA0E0298421BD054
:10346000604519D0A84217D0B04215D0B84213D049
:10347000A04211D0164DA8420ED0164DA8420BD036
:10348000154DA84208D0154DA84205D0144DA842AC
:1034900002D0144DA84203D122F44075CA682A43D1
:1034A00002608A68C2620A688262984201D0A042C1
:1034B00001D10969016301214161F0BD00000140B2
:1034C0000004004000080040000C004000040140DF
:1034D0000040014000440140004801400018004005
:1034E000001C00400020004010B50123046A8B40FE
:1034F0009C430462036A8A401343036210BD0000C8
:1035000030B5026A22F001020262026A43688469ED
:103510000D6824F07304254322F002048A682243D4
:103520000B4CA04202D00B4CA0420BD122F008045D
:10353000CA6823F4407322434C6922F004021C43FE
:103540008B6923434360856149684163026230BDF2
:10355000000001400004014030B5026A22F0100270
:103560000262026A436884690D6824F4E64444EA0E
:1035700005248D6822F0200242EA05120D4DA84272
:1035800002D00D4DA8420ED1CD6822F0800242EA51
:1035900005124D6923F4406343EA85038D6922F0E7
:1035A000400243EA850343608461496881630262A3
:1035B00030BD0000000001400004014030B5026A47
:1035C00022F480720262036A4268C46923F40073C1
:1035D00024F073050C682C438D6843EA05230D4DD8
:1035E000A84202D00C4DA8420ED1CD6823F400634E
:1035F00043EA05234D6922F4405242EA05128D69DF
:1036000023F4806342EA05124260C4614968C163E1
:10361000036230BD000001400004014030B5026A81
:1036200022F480520262046A4268C3690D6823F47E
:10363000E64343EA05238D6824F4005444EA053444
:10364000084DA84202D0084DA84204D14D6922F489
:10365000804242EA85124260C361496801640462A3
:1036600030BD00000000014000040140024800217C
:1036700001604160704700006800002010B5806B59
:103680000021C185C184FFF708F810BD70B5846BB7
:103690002068406994F83910C0F3C0100025212932
:1036A00004D118B1E584204600F046F8206840694E
:1036B00094F83A10C0F38010222904D118B1E5859E
:1036C000204600F02BF8E06B40F01000E06320464D
:1036D000FEF7E3FF70BD10B50146806B096809680D
:1036E000C90513D40021C1850168CA6822F480721B
:1036F000CA6001684A6922F001024A6101684A69A8
:1037000022F040024A61202180F83A10FFF7C2F906
:1037100010BD10B5806BFFF7BEF910BD0168CA6817
:1037200022F49072CA6001684A6922F001024A617B
:10373000202180F83A1070470168CA6822F0C00260
:10374000CA60202180F83910704710B590F83A10FF
:10375000222901D0022010BD8168B1F5805F11D00F
:103760000169002901681FD0496801F07F03816A5F
:103770004A1C82620B70C18D491E0904090CC18567
:1037800018D026E00269816A002A0268526805D0D2
:10379000D2B20A80816A491C8162ECE7C2F3080256
:1037A0000A80816A891CF7E74A68816A4B1C836238
:1037B0000A70E0E70168CA6822F49072CA60016882
:1037C0004A6922F001024A61202180F83A10FFF78D
:1037D00061F9002010BD00002DE9F04104460068A9
:1037E000016921F44052E168114301612168C86810
:1037F00049F20C6290432369A268E5691A43636940
:103800002B431A430243CA602168486920F440727E
:10381000A06910434861E1696425B1F5004F9748FC
:10382000974A21684FF032083FD0914201D081423F
:103830007CD1FEF713FB00EBC00101EB00106168C7
:103840008900B0FBF1F6FEF709FB00EBC00101EBCC
:10385000001061688900B0FBF1F0B0FBF5F06FF08B
:103860001801484306EB800108EB0110B0FBF5F0AE
:1038700000F0F006FEF7F2FA00EBC00101EB0010D9
:1038800061688900B0FBF1F0B0FBF5F006EB0016C3
:10389000FEF7E4FA00EBC00101EB0010616889005B
:1038A000B0FBF1F7FEF7DAFAD2E0914201D08142A3
:1038B0003DD1FEF7D3FA00EBC00101EB00106168C7
:1038C0004900B0FBF1F0B0FBF5F00601FEF7C6FAD7
:1038D00000EBC00101EB001061684900B0FBF1F79B
:1038E000FEF7BCFA00EBC00101EB00106168490073
:1038F000B0FBF1F0B0FBF5F06FF01801484307EBB7
:10390000800108EBC100B0FBF5F000F0F80006EB19
:103910004006FEF7A3FA00EBC00101EB001061685E
:103920004900B0FBF1F7FEF799FA3CE055E0FEF7ED
:1039300085FA00EBC00101EB001061684900B0FBA3
:10394000F1F0B0FBF5F00601FEF778FA00EBC001EC
:1039500001EB001061684900B0FBF1F7FEF76EFA69
:1039600000EBC00101EB001061684900B0FBF1F011
:10397000B0FBF5F06FF01801484307EB800108EB4E
:10398000C100B0FBF5F000F0F80006EB4006FEF7D2
:1039900055FA00EBC00101EB001061684900B0FB73
:1039A000F1F7FEF74BFA00EBC00101EB0010616884
:1039B0004900B0FBF1F0B0FBF5F06FF0180148439F
:1039C00007EB800108EBC100B0FBF5F000F0070049
:1039D000216830448860BDE8F081FEF72FFA00EBE3
:1039E000C00101EB001061688900B0FBF1F6FEF741
:1039F00025FA00EBC00101EB001061688900B0FB03
:103A0000F1F0B0FBF5F06FF01801484306EB8001D0
:103A100008EB0110B0FBF5F000F0F006FEF70EFA2F
:103A200000EBC00101EB001061688900B0FBF1F010
:103A3000B0FBF5F006EB0016FEF700FA00EBC00154
:103A400001EB001061688900B0FBF1F7FEF7F6F9B1
:103A500000EBC00101EB001061688900B0FBF1F0E0
:103A6000B0FBF5F06FF01801484307EB800108EB5D
:103A70000110B0FBF5F000F00F00A9E700140140C1
:103A80000010014090F83910212901D00220704720
:103A90008168B1F5805F016A0BD04A1C026202683E
:103AA00009785160C18C491E0904090CC1840ED0EB
:103AB00017E009880268C1F3080151600169002913
:103AC000016A02D0491C0162ECE7891CFBE701682E
:103AD000CA6822F08002CA600068C16841F04001F3
:103AE000C16000207047000010B5044800F090F855
:103AF000BDE810400148FEF7D1BD000014010020D0
:103B00000148FEF7CBBD00009401002010B5044829
:103B100000F00AF8BDE810400148FEF7BFBD000004
:103B2000D4010020FEE7000038B5044600680168B3
:103B300040680090606B00684068012801D1FCF784
:103B40007DFD2046BDE8384013220149FEF756BFEF
:103B5000C405002070B50C460546FCF7D7FD284685
:103B6000FDF714FD02212846FDF7BCF9FCF71CFE09
:103B7000FCF7DEFD0348A0601C3860601838206048
:103B800070BD00002C05002010B518491848FCF73E
:103B9000AFFD18491848FFF7DDFFFCF751FEFFF7AE
:103BA00041FAFCF78FFFFFF761FDFDF787F9134836
:103BB000FEF7DAFB08211248FEF74AFD0C211048F7
:103BC000FEF746FD0F480068C16841F01001C16072
:103BD0000D480068C16841F01001C1600122BDE8D4
:103BE000104051030948FDF785BF00004404002040
:103BF000340300203804002074000020D800002086
:103C00009C00002014010020D40100200018024074
:103C100038B504460068016840680090606B006831
:103C20004068012801D1FCF709FF2046BDE8384073
:103C300013220149FEF7E2BE64050020FEE702E020
:103C400008C8121F08C1002AFAD170477047002027
:103C500001E001C1121F002AFBD17047B5EEC00A76
:103C6000F1EE10FA01D2B1EE400A70471CB5FDF733
:103C700055FFFFF7ABFAFFF715F8FEF7E5FF3348FE
:103C80003149002401603249C0E901144FF48061D8
:103C9000C0E903410C25C0E90554C461FEF786FD67
:103CA00000B1FEE7FEF7AEFF28482A493C38016024
:103CB00040F28331C0E9011440F2E731C160FEF700
:103CC00019FB00B1FEE72148009469463C38019495
:103CD000FEF7E8FA00B1FEE71C481F4940304FF4F8
:103CE000E1360160C0E90164C460C0E90445846153
:103CF000C461FEF75BFD00B1FEE714481749803050
:103D00000160C0E90164C460C0E904458461C46124
:103D1000FEF74CFD00B1FEE70C481149C0300160D0
:103D2000C0E90164C460C0E904458461C461FEF770
:103D30003DFD00B1FEE7FFF701F8FFF725FF322058
:103D4000FDF7E0FDFEE70000001001401401002037
:103D5000A0860100001400400044004000480040DC
:103D600000140140B5EEC00AF1EE10FA01D2B1EE36
:103D7000400A7047F0B588B01C2A2AD80DEB02051E
:103D80000026EE7088268DF800608DF801006C46E4
:103D90008DF80220002004E00E5C2718401CFE7005
:103DA000C0B29042F8D30020D11C05E0275CEE7829
:103DB000401C3E44EE70C0B28842F7D30025161D69
:103DC00005E0605D194600F007F86D1CEDB2B542E4
:103DD000F7D308B0F0BD000009680A68D2431206A4
:103DE000FBD40149086070470444004000061016E7
:103DF000000610160000000000000000010203048D
:103E00000607080900000000010203042C3E000818
:103E100000000020740000003E3C0008A03E0008A6
:103E2000740000207C0900004E3C000801000000E6
:103E300010000000000000000024F400000000005A
:103E40000000000000000000000000005A5A0000BE
:103E500000000000000040410000000000000000E1
:103E60000000000000000000000000000000964379
:103E70000000C842000048420000000000000000AE
:103E80000000000000000000000000000000000032
:103E90000000000000000000000000000000000022
:04000005080001AD41
:00000001FF
