:020000040800F2
:1000000068090020C1010008C323000881220008FC
:10001000C12300088D030008E12F00080000000044
:10002000000000000000000000000000F9270008A8
:10003000E107000800000000F7270008FB27000880
:10004000DB010008DB010008DB010008DB01000820
:10005000DB010008DB010008DB010008DB01000810
:10006000DB010008DB010008DB010008DB01000800
:10007000E1060008DB010008DB010008DB010008E5
:10008000DB010008DB010008DB010008DB010008E0
:1000900091030008DB010008DB010008DB01000818
:1000A000DB010008DB010008DB010008DB010008C0
:1000B000DB010008DB010008DB010008DB010008B0
:1000C000DB010008DB010008DB010008DB010008A0
:1000D000DB010008A52F0008DB010008BD2F000888
:1000E000DB010008DB010008DB010008DB01000880
:1000F000DB010008DB010008DB010008DB01000870
:10010000DB010008DB010008DB010008DB0100085F
:10011000DB010008DB010008DB010008F129000811
:10012000DB010008ED060008F9060008DB01000805
:10013000DB010008DB010008DB010008DB0100082F
:10014000DB010008DB010008DB010008DB0100081F
:10015000DB010008DB010008DB010008C92F0008F3
:10016000DB010008DB010008DB010008DB010008FF
:10017000DB010008DB010008DB01000800000000D3
:10018000DB010008DB010008DB010008DB010008DF
:10019000DB010008DB010008DB010008DB010008CF
:1001A0000000000000000000DB010008DFF80CD0B8
:1001B00000F07AF80048004705310008680900207F
:1001C0000648804706480047FEE7FEE7FEE7FEE7F1
:1001D000FEE7FEE7FEE7FEE7FEE7FEE7B1280008E0
:1001E000AD0100082DE9F05F0546002092469B46D0
:1001F00088460646814640241BE02846414647463D
:10020000224600F041F853465A46C01A914110D395
:1002100011461846224600F028F82D1A67EB01080F
:100220004F4622460120002100F01FF817EB00097D
:100230004E41201EA4F10104DFDC484631462A4627
:100240004346BDE8F09F40EA01039B0703D009E065
:1002500008C9121F08C0042AFAD203E011F8013BB2
:1002600000F8013B521EF9D27047202A04DB203AE5
:1002700000FA02F1002070479140C2F1200320FAF9
:1002800003F3194390407047202A04DB203A21FAF7
:1002900002F00021704721FA02F3D040C2F120029F
:1002A0009140084319467047064C074D06E0E06848
:1002B00040F0010394E8070098471034AC42F6D3AD
:1002C000FFF778FF383200085832000830B5294966
:1002D00008785A284DD148785A284AD12648002211
:1002E00002704270CB781B1D05E08C5C0578521CB7
:1002F0002C4404704270D2B29342F6D8D2B2007845
:100300008A5C824235D18A781A48530700F114007A
:1003100008D58B885BBA0380CB885BBA43800B8996
:100320005BBA8380120721D54A8952BA00EE102A9F
:10033000F8EE400A9FED110A80EE801A80ED021A55
:100340008A8952BA12B200EE902AF8EEE00A80EEE4
:10035000801A80ED031AC98949BA09B200EE901AD1
:10036000F8EEE00A80EE801A80ED041A818A491CBA
:10037000818230BD38050020380000200000C842CE
:10038000014AC2E90001704724000020FEE7000096
:10039000014800F0B7BB00003C00002007490022E4
:1003A00001230A604A608A60CA600A614A61C1E941
:1003B00006230E22C1E9083200F0A0BAC8040020CA
:1003C000074900200860486008611C3108724872C3
:1003D0008872C872087348738873C87370470000C6
:1003E0009C040020F0B4134CDDE9046527683960F3
:1003F00027680021B9602768F96008213961A7687A
:10040000110A3970A1684A70A268190A9170A1682E
:10041000CB70A268310A1171A1684E71A268290AD5
:1004200001239171A168CD71A2682168F0BC00F030
:1004300001BA0000C4030020084900200822086017
:100440008860C1E903023431087048708870C87050
:10045000087148718871C8717047000084040020D9
:10046000642302220149024801F0ACBE11000020C1
:10047000E00000200A784B7843EA0222C2808A78A2
:10048000CB7843EA022242800A79497941EA022282
:10049000828070474D480021A0F8C010A0F8C2101B
:1004A0009FED4B0A4FF47A7280ED310AA0F8CA2012
:1004B0004FF61842A0F8CC204FF40072A0F8C820E4
:1004C00020F8581B414B20F8561C20F8541C20F8EB
:1004D000521C0C3320F8501CF0EE0C0A03F1C80239
:1004E00040ED130A9FED3B1A136000ED121A1B1D1D
:1004F000DFED391A536040ED111A1B1D936000EDBA
:10050000100A00ED0F0A00ED0E0A40F8301C00ED55
:100510000D0A20F82C1C20F8281C20F8261C20F896
:10052000241C20F8221C20F8201C40ED070A283348
:10053000D36000ED061A1B1D136140ED051A1B1D4B
:10054000536100ED040A00ED030A00ED020A0160A8
:1005500000ED010A8180018141818181C181018297
:10056000C0ED050A2833936180ED061A1B1DD36187
:10057000C0ED071A1B1D136280ED080A80ED090A01
:1005800080ED0A0A016380ED0B0A818601874187AD
:100590008187C187A0F84010C0ED110A283353624B
:1005A00080ED121A1B1D9362C0ED131A1B1DD3623E
:1005B00080ED140A80ED150A80ED160A016680EDC3
:1005C000170AA0F86410054981677047C00200202F
:1005D00000000000CDCCCC3ECDCC4C3D61240008C9
:1005E00010B50446002101F05BFFA06AB0F90220BB
:1005F000B0F9001004F1080001F043FE002104F1FD
:10060000300001F04DFFA06DB0F90220B0F90010EC
:1006100004F1380001F035FED4F88C002246B0F920
:100620000210B4F9080001F0DDFEB4F86C0020817E
:10063000D4F88C002246B0F90410B4F9380001F067
:10064000D1FEB4F86C00208710BD00001A4910B527
:100650001A2201F11A00FFF7F6FD17481438018835
:10066000C1F30A021449A2F580620A8042788378B5
:10067000D20842EA4312C2F30A02A2F580624A801B
:100680009A09C37842EA8302037942EA8322C2F3D9
:100690000A02A2F580628A8042795B0843EAC210AE
:1006A000C0F30A00A0F58060C88090090872C2F308
:1006B0000110487210BD0000040500200649032007
:1006C000087006480021018041808180C180C1827C
:1006D00001834181704700002C00002004050020A8
:1006E000014800F02DBC000000020020014800F08D
:1006F00027BC000060020020014800F021BC00007F
:10070000A001002001681823CAB2103AB2FBF3F22C
:10071000054B6FF30901032A9B5CC36500D9091DD2
:1007200081650846704700001832000810B5014680
:1007300000208B698A6A4FF0C07453B1B3F5005F33
:1007400015D072B1012A0CD0022A0AD0032A09D18D
:1007500004E01AB1012A06D0022A03D1C96AC901EC
:1007600000D5012010BDC96AA142FAD010BD002AEF
:10077000F7D0012AF2D0022AF3D0032AF3D010BD19
:1007800030B50468256825F4802525600468636019
:100790008368402B036803D099600068C26030BD55
:1007A0009A600068C16030BD10B50C4A4B88127861
:1007B00013FB02F30468A4F8C0300B8813FB02F2A9
:1007C0000368A3F8C2208A8843685242A3F89220A3
:1007D000C98840684942A0F8901010BD1000002060
:1007E00070470000074800219FED070A0180418003
:1007F000818080ED020A80ED030A80ED040A818287
:10080000704700004C0500200000000090F82020F8
:10081000012A09D090F82020022A05D0416A41F42B
:100820008021416201207047006842690A434261A9
:1008300000207047F0B590F82040012C07D090F8C8
:100840002040022C03D0416A41F4802153E0046827
:10085000A5686D0105D4A5682D0102D4A568ED0039
:1008600046D5A4680125C4F30164A5401D608D68C8
:100870004FF4C0739DB1CE6835434E6845EAC60556
:10088000066803EB0417F5514FF4C275076805EBD2
:1008900004150E697E51097D012905D009E00E88F5
:1008A000CD6845EA4655EBE701684E5946F4807637
:1008B0004E511179D2F805504FF4C67641EA052120
:1008C000056806EB0416A9511178D2F801204FF4FF
:1008D000C47541EA0221026805EB04155151006814
:1008E00003EB0411425842F0010242500020F0BDD7
:1008F000416A41F4001141620120F0BD10B590F849
:100900002020012A09D090F82020022A05D0416A2F
:1009100041F480214162012010BD3A48D0F8002204
:1009200042F00102C0F80022D0F8002222F47C52EA
:10093000C0F80022D0F800224B6A42EA0322C0F835
:1009400000220B7D01229A40D0F81C329343C0F85C
:100950001C32CB69B3B9D0F80C329343C0F80C32D7
:100960008C894B6864F31F434C6900EBC404C4F8E2
:1009700040320C890B6864F31F434C6900EBC404DC
:10098000C4F84432CB69012B16D1D0F80C32134392
:10099000C0F80C320C884B6864F31F434C6900EBC1
:1009A000C404C4F840320C89CB6864F31F434C691B
:1009B00000EBC404C4F844328B69002BD0F8043235
:1009C0000ED01343C0F804320B69002BD0F8143258
:1009D00008D01343C0F81432096A012904D008E092
:1009E0009343EFE79343F5E7D0F81C121143C0F8A7
:1009F0001C12D0F8001221F00101C0F800120020F2
:100A000010BD000000640040704730B590F82040F1
:100A1000012C07D090F82040022C03D0416A41F409
:100A2000802109E011B1012909D00CE00468E468D3
:100A300007E0416A41F400114162012030BD0468C1
:100A40002469A407F5D04FF4D874056804EB0114A9
:100A50002D5915F00405956005682D5942D0ED0813
:100A6000556005682C59C4F34004D4604FF4DA741F
:100A7000056804EB01142D5905F00F051561056893
:100A80002D59C5F30725956105682C59240C54612F
:100A90004FF4DC72046802EB0112A4581C70046865
:100AA000A458240A5C700468A458240C9C70046840
:100AB000A258120EDA704FF4DE72046802EB0112D3
:100AC000A4581C710468A458240A5C710468A458D2
:100AD000240C9C710468A258120EDA7129B1012904
:100AE00009D00DE06D0D1560BBE70068C16841F0ED
:100AF0002001C16004E00068016941F0200101614A
:100B0000002030BD2DE9F05F0546006800244669ED
:100B1000D0F804908768D0F80CB0D0F810A0D0F8C6
:100B20001880F10748D0F90714D001218160B80777
:100B300003D5284600F0EBF90CE0780702D54FF416
:100B4000006407E0380702D54FF4805402E02846DD
:100B500000F0DCF9F80516D529684FF4807088603C
:100B6000B80503D5284600F0D4F90CE0780502D585
:100B700044F4005407E0380502D544F4804402E010
:100B8000284600F0C5F9F80316D529684FF48030DF
:100B90008860B80303D5284600F0BDF90CE078035F
:100BA00002D544F4004407E0380302D544F480340D
:100BB00002E0284600F0AEF9300707D55FEACB60C7
:100BC00004D52968102044F40074C86070074FF001
:100BD000080707D55FEA0B7004D52868C760284668
:100BE00000F048F9B00706D52868C068800702D031
:100BF000284600F041F9700607D55FEACA6004D5BF
:100C00002968102044F480640861B00607D55FEAC3
:100C10000A7004D528680761284600F047F9F006F5
:100C200006D528680069800702D0284600F03FF901
:100C3000B00308D55FEAC96005D52968102048606F
:100C4000284600F035F9F00307D55FEA097004D5AE
:100C500028684760284600F05FF9300446D55FEA0F
:100C6000497040D5F00504D55FEAC87001D044F062
:100C70000104B00504D55FEA887001D544F0020490
:100C8000700504D55FEA487001D544F004043005CE
:100C900029D518F0700F26D008F07000402815D024
:100CA00006DC102809D020280AD0302816D10AE006
:100CB00050280ED0602811D10EE044F008040DE059
:100CC00044F010040AE044F0200407E044F040043B
:100CD00004E044F0800401E044F4807428688169F1
:100CE00021F070018161296804204860002C05D042
:100CF000686A204368622846FFF786FEBDE8F09FD9
:100D000070B5040003D094F8200010B104E0012075
:100D100070BD204600F082F82068016821F00201D1
:100D2000016000F081FB0546052604E000F07CFB35
:100D3000401B0A2811D8206840688007F6D4206834
:100D4000016841F00101016000F06EFB05460BE017
:100D500000F06AFB401B0A2806D9606A40F40030A4
:100D6000606284F82060D2E720684068C007EFD056
:100D7000207E0128206801683DD021F080010160BB
:100D8000607E01282068016838D021F040010160B0
:100D9000A07E01282068016833D021F02001016085
:100DA000E07E0128206801682ED041F0100101602A
:100DB000207F01282068016829D021F00801016006
:100DC000607F01282068016824D021F004010160BF
:100DD000D4E902010843D4E90412114308436168CD
:100DE000491E08432168C86100206062012084F820
:100DF0002000002070BD41F08001C0E741F04001BB
:100E0000C5E741F02001CAE721F01001CFE741F02A
:100E10000801D4E741F00401D9E7000000B50068FB
:100E2000114987B088421DD11048016841F0007116
:100E300001600068022100F0007005900320CDE9F8
:100E400000010121CDE902100920049069460848FB
:100E500000F0FEF900220221142000F07BFB142098
:100E600000F06CFB07B000BD006400404038024059
:100E7000000C02407047000010B5094A0168914219
:100E80000CD10849D1E9012300210833FFF7BDFD4A
:100E9000BDE810400349044801F082BC10BD0000C9
:100EA00000640040C4030020240000207047704705
:100EB0007047000070B5044690F82000012804D067
:100EC000606A40F40020606218E0022084F820008C
:100ED0002068016821F00101016000F0A5FA0546D3
:100EE0000EE000BF00F0A0FA401B0A2808D9606A93
:100EF00040F400306062052084F82000012070BDBD
:100F000020684068C007EDD1606270BD70477047CF
:100F10007047704770477047704790F83510022946
:100F200003D08021416501207047052180F83510EC
:100F30000068016821F00101016000207047000095
:100F40002DE9F84304464FF00009CDF800906348BE
:100F50004FF41651A56D0068B0FBF1F72E6894F8B8
:100F60005C10082000FA01F131420FD021680A68B4
:100F700052070BD50A6822F004020A6094F85C104C
:100F80008840A860606D40F00100606594F85C10D6
:100F90004FF0010808FA01F0304208D02168496991
:100FA000090604D5A860606D40F00200606594F801
:100FB0005C1004208840304208D021680968890705
:100FC00004D5A860606D40F00400606594F85C1082
:100FD00010208840304218D021680968090714D5CC
:100FE000A86020680168490304D50068000308D59B
:100FF000A16C07E00168C90503D4016821F008016C
:101000000160216C09B12046884794F85C102020CB
:101010008840304231D021680968C9062DD5A860C2
:1010200094F8350005282068016806D0490347D5A3
:10103000006800031DD4616C1CE021F01601016002
:101040002068416921F080014161206C08B9A06CE1
:1010500020B12068016821F00801016094F85C105B
:101060003F208840A86084F8349084F83580216D52
:101070001FE0E16B09B120468847606D00282BD046
:10108000606DC00714D0052084F835002068016821
:1010900021F0010101600098401C0090B84203D883
:1010A00020680068C007F6D184F8349084F8358051
:1010B000E16C002910D001B02046BDE8F04308479C
:1010C0000168C905D5D4016821F01001016084F8D8
:1010D000349084F83580CCE7BDE8F8830C0000201C
:1010E0002DE9F041044600F09FF906465CB1002569
:1010F00084F83450022084F835002068016821F01B
:10110000010101600DE00120BDE8F08100F08CF9E3
:10111000801B052805D920206065032084F8350050
:10112000F2E720680068C007F0D122681168204803
:101130000140D4E901031843D4E90336334318438B
:1011400063691843A3691843E3691843236A184382
:101150000843616A042903D1D4E90B1319430843F6
:10116000106020684069666A20F0070130460E432F
:10117000012704280CD1A06A0643E06A40B120464A
:10118000FFF7D4FA20B14020606584F83570BAE7E3
:10119000206846612046FFF7B5FA94F85C203F21AD
:1011A00091408160656584F835700020ACE70000EF
:1011B0003F8010F02DE9F0410446866D90F8340030
:1011C000002501280DD0012084F8340094F83570F2
:1011D0000020012F07D084F8340002252846BDE8FE
:1011E000F0810220FBE7022784F835706065204615
:1011F000FFF7C6FA94F85C103F208840B060206882
:10120000016841F0160101602068416941F08001E8
:101210004161206C20B12068016841F00801016043
:101220002068016841F001010160D7E770B504460C
:1012300000F0FAF80546601C02D004480078044427
:1012400000F0F2F8401BA042FAD370BD000000206D
:101250002DE9F84FDFF890B100224FF001084FF070
:10126000030A4FF00F090BF1040E00BF0B6808FAD8
:1012700002F42340A3426ED14D68022D01D0122DFD
:101280000ED1D50800EB850CDCF820505607F70E80
:1012900009FA07F6B5430E69BE402E43CCF820602C
:1012A000066855000F790AFA05FC07F0030726EADD
:1012B0000C06AF40374307604E68012E05D0022E62
:1012C00003D0112E01D0122E0ED18768CE6827EAE6
:1012D0000C07AE403E4386604668A6430C79C4F3D3
:1012E0000014944034434460C4688E6824EA0C04BB
:1012F000AE402643C6604C68E4006FD53B4C256881
:1013000045F480452560246822F0030504F48044F8
:101310000094374C2E19D6F8084895072F0F09FA74
:1013200007F5AC43334DA84201D100252EE0324DE4
:10133000A84201D1012529E0304DA84201D1022562
:1013400024E02F4DA84201D103251FE02D4DA842D6
:1013500002D104251AE041E02B4DA84201D1052518
:1013600014E02A4DA84201D106250FE0284DA842DD
:1013700001D107250AE0274DA84201D1082505E043
:10138000254DA84201D1092500E00A25BD4025438D
:10139000C6F80858DBF800405D464E689C43F603EB
:1013A00000D51C432C60DEF8004075464E689C4317
:1013B000B60300D51C432C600B4D08352C684E68D5
:1013C0009C43F60200D51C432C60074D0C352C685D
:1013D0004E689C43B60200D51C432C60521C102A58
:1013E000FFF444AFBDE8F88F003C014044380240B0
:1013F00000300140000002400004024000080240AA
:10140000000C02400010024000140240001802408C
:10141000001C024000200240002402400AB1816109
:1014200070470904FBE7000001488068704700002E
:1014300000000020024881680278114481607047F2
:10144000000000200B4810B5016841F400710160F4
:10145000016841F480610160016841F480710160BC
:10146000032000F097F8002000F006F800F024F8C0
:10147000002010BD003C024070B50D4D04464FF4F5
:101480007A712878B1FBF0F00A490968B1FBF0F0F5
:1014900000F055FB48B9102C07D200222146501EFF
:1014A00000F058F800206C6070BD012070BD000095
:1014B000000000200C0000201F4808B5016841F41E
:1014C00080410160006800F4804000901A48001FCD
:1014D000016841F080510160006800F08050009088
:1014E000032000F057F8002211466FF00B0000F0C7
:1014F00031F8002211466FF00A0000F02BF80022AC
:1015000011466FF0090000F025F800221146501F27
:1015100000F020F800221146101F00F01BF80022F6
:101520001146901E00F016F80022BDE80840114652
:10153000501E00F00FB800004438024000F01F02B7
:10154000012191404009800000F1E020C0F8001125
:1015500070470000F0B40E4B1B680C46C3F3022327
:10156000C3F10705042D00D90425191D072901D24F
:10157000002300E0DB1E012606FA05F1491E21408A
:1015800099409E40761E16403143F0BC00F01ABFD1
:101590000CED00E0064900F0070208684FF6FF0373
:1015A000184040EA0220034A1043086070470000D8
:1015B0000CED00E00000FA052DE9F843174801683A
:1015C00041F0805101600068154F00F08050012605
:1015D00000903E64FFF728FF05464FF47A78114CDF
:1015E00005E000BFFFF720FF401B40450DD86068B5
:1015F000C003F7D57E64FFF717FF0546464607E0B0
:10160000FFF712FF401BB04202D90320BDE8F88368
:1016100060688003F4D50020F8E7000040380240FD
:1016200000000E42007000402DE9F0470E46050014
:1016300065D0DFF81481D8F80000F7B200F00F0091
:10164000B04207D288F80070D8F8000000F00F0010
:10165000B04254D128683D4C810712D5400703D5CC
:10166000206840F4E05020602878000703D5206807
:1016700040F4604020602068A96820F0F000084332
:1016800020602878C0072DD03049686808390128C3
:1016900012D0022813D0032811D009688907002925
:1016A0002DDA216821F0030101432160FFF7BCFE20
:1016B000814641F2883A0EE009688903EFE709683C
:1016C0008901ECE7FFF7B0FEA0EB0901514502D913
:1016D0000320BDE8F0872068696800F00C00B0EBDB
:1016E000810FEFD1D8F80010404601F00F01B14250
:1016F00007D90770006800F00F00B04201D0012048
:10170000E7E72878400705D52068E96820F4E0502D
:10171000084320602878000706D52068296920F44E
:10172000604040EAC100206000F03CF82168084AAF
:10173000C1F30311515CC840064908600020FFF75F
:101740009BFE0020C5E70000003C02400838024034
:10175000203200080C00002001480068704700009B
:101760000C0000200448054900680968044AC1F3D8
:101770008221515CC84070470C00002008380240AC
:10178000303200080448054900680968044AC1F37A
:101790004231515CC84070470C00002008380240BC
:1017A00030320008154810B5006810F00C021448DB
:1017B00013D01449042A0FD0082A0ED10F4C241F2D
:1017C0002268236802F03F025B0207D52068C0F35D
:1017D0008810A0FB010106E0084610BD2168C1F396
:1017E0008811A1FB00010023FEF7FCFC2168C1F376
:1017F0000141491C4900B0FBF1F010BD083802401E
:101800000024F400001BB7002DE9F84F050076D046
:101810002878DFF8F8B2BE4CC00749D0DBF80010DA
:101820005846C1F38101012908D00068C0F3810046
:1018300002280AD1201D0068400206D520688003D6
:1018400036D568680028E2D032E06868B0F5803F9D
:1018500010D0B0F5A02F206810D020F48030206088
:10186000206820F4802020606868A0B1FFF7DCFDCC
:1018700006460CE0206840F48030F4E740F4802015
:101880002060F7E7FFF7D0FD801B642873D820683D
:101890008003F7D50CE0FFF7C7FD064605E000BF63
:1018A000FFF7C2FD801B6428F0D820688003F7D4BE
:1018B0002878DFF8608280074FF000093ED5DBF81A
:1018C0000010584611F00C0F09D00068C0F38100D9
:1018D00002280BD18D48001F0068400206D4206802
:1018E000800715D5E868012809D111E0E868B8B18A
:1018F0000120C8F80000FFF797FD064605E002E169
:10190000FFF792FD801B0228C0D820688007F7D51A
:101910002068296920F0F80040EAC10020600DE04D
:10192000C8F80090FFF780FD064604E0FFF77CFD55
:10193000801B02281FD820688007F7D4287800076A
:1019400022D5724E744869696C3671B1012101600B
:10195000FFF76AFD074604E0FFF766FDC01B02289B
:1019600009D830688007F7D50EE0C0F80090FFF77F
:101970005BFD074605E083E0FFF756FDC01B02282C
:101980007ED830688007F7D42878400768D5DFF81C
:101990007CA100270AF1380ADAF80000C0000BD455
:1019A000DAF8001041F08051CAF80010DAF80000AF
:1019B000012700F080500090584E3068C00510D4C8
:1019C000306840F480703060FFF72EFD009005E035
:1019D000FFF72AFD0099401A022851D83068C00547
:1019E000F6D54A4EA868683601280FD00528306819
:1019F00010D020F001003060306820F0040030602A
:101A0000A868B8B1FFF710FD00900FE0306840F013
:101A10000100F4E740F004003060F7E7FFF704FD51
:101A20000099411A41F28830814264D830688007B9
:101A3000F4D50EE0FFF7F8FC009007E0FFF7F4FCA8
:101A40000099411A41F28830814254D830688007A9
:101A5000F4D42FB1DAF8001021F08051CAF8001048
:101A6000A869C0B3DBF80010C1F3810102294AD094
:101A70000228484607D0C8F86000FFF7D5FC00E010
:101A800039E005463AE04746C8F86000FFF7CCFC6D
:101A9000064604E0FFF7C8FC801B02282BD820680C
:101AA0008001F7D4D5E907010843A96A1C4A49080F
:101AB00002EB01416A6A41EA8211084395F82C1051
:101AC00040EA01611148001F016001203866FFF7FC
:101AD000ABFC054605E014E0FFF7A6FC401B02281E
:101AE00009D820688001F7D50BE000BFFFF79CFC08
:101AF000401B022802D90320BDE8F88F206880012E
:101B0000F4D40020F8E70120F6E70000083802408E
:101B10000038024000004742800E474200700040FB
:101B20000000FFFF4FF0E0210428086903D020F0F7
:101B300004000861704740F00400FAE7704710B5F0
:101B4000401EB0F1807F01D3012010BD4FF0E02492
:101B500060610F21601700F035FC0020A0610720B4
:101B60002061002010BD10B5FFF7E8FF10BD7047E1
:101B7000704730B590F83820012A20D0012280F833
:101B80003820022380F8393003685C6824F0700440
:101B90005C6003685C680D682C435C6003689C684B
:101BA00024F080049C6003689C6849680C439C6036
:101BB00080F83920002180F83810084630BD022016
:101BC00030BD10B5040003D094F8390010B107E01F
:101BD000012010BD002084F83800204600F00CF8E9
:101BE000022084F83900211D206800F00BFF01203D
:101BF00084F83900002010BD08B500680B49884200
:101C000012D10B48016841F02001016000680022F8
:101C100000F02000009003213720FFF79BFCBDE877
:101C200008403720FFF78ABC08BD000000140040C0
:101C3000403802400168CA6842F00102CA60006888
:101C4000016841F00101016000207047704770B5E4
:101C50000446006801694FF00005C943890715D49F
:101C6000C168C943890711D4E91E016101202076AA
:101C7000206880698007204602D0FFF7E7FF04E074
:101C800000F098F8204600F096F825762068016963
:101C9000C943490717D4C168C943490713D46FF032
:101CA00004010161022020762068806910F4407FE1
:101CB000204602D0FFF7CAFF04E000F07BF8204680
:101CC00000F079F8257620680169C943090716D420
:101CD000C168C943090712D46FF0080101610420EB
:101CE00020762068C0698007204602D0FFF7AEFF4B
:101CF00004E000F05FF8204600F05DF825762068EB
:101D00000169C943C90617D4C168C943C90613D4B8
:101D10006FF010010161082020762068C06910F47E
:101D2000407F204602D0FFF791FF04E000F042F828
:101D3000204600F040F8257620680169C943C907AC
:101D400008D1C168C943C90704D1891E0161204671
:101D500000F032F820680169C943090609D4C16856
:101D6000C943090605D46FF0800101612046FFF7E1
:101D7000FEFE20680169C943490609D4C168C94308
:101D8000490605D46FF040010161204600F01CF8BF
:101D900020680169C94389060BD4C168C943890613
:101DA00007D46FF0200101612046BDE87040FFF7C5
:101DB000DFBE70BD704770470249884201D100F014
:101DC000A1BD7047640000207047704770B502687D
:101DD00004461068D168536910F00F0F50D003F01B
:101DE000010501F4907635435DD0C20705D0CA05E0
:101DF00003D5E26B42F00102E263420705D5DA0740
:101E000003D0E26B42F00202E263820705D5DA07F3
:101E100003D0E26B42F00402E263020705D5DA0761
:101E200003D0E26B42F00802E263E26B002A33D097
:101E3000800604D5880602D5204600F0B2FE206850
:101E40004069E16BC0F38010090700D428B3204635
:101E500000F090FE2068416949061AD5416921F0D9
:101E600040014161606BA0B11B490165606BFFF7E8
:101E700054F8002810D0606B016DBDE87040084731
:101E8000830610D58B060ED52046BDE8704000F0C5
:101E900088BE2046FFF799FF70BD2046FFF795FFEB
:101EA0000020E06370BD030606D50B0604D520466E
:101EB000BDE8704001F012B84006F3D54806F1D5F0
:101EC000D168204621F04001D160202184F83910EA
:101ED00000F0D5F970BD0000D52A000870B50400E7
:101EE00004D094F83900002510B106E0012070BD3F
:101EF00084F83850204600F023F8242084F8390074
:101F00002068C16821F40051C160204600F090FEB5
:101F10002068016921F4904101612068416921F044
:101F20002A0141612068C16841F40051C160E56344
:101F3000202084F8390084F83A00002070BD0000A9
:101F40002DE9F04F0546D0F800C063480024DFF8C3
:101F50008C910221012203230727061587B04FF039
:101F6000006A4FF4003B84452ED1D9F800C04CF0F4
:101F7000100CC9F800C0D9F8000000F0100005905E
:101F8000C0208DE88F0069465548FFF761F9564F2C
:101F900054483860C7E901A4C7E903467C61BC61C5
:101FA000C7E9074B38467C62FFF79AF818B1DF2182
:101FB0004EA001F097F86F63002201212520BD6338
:101FC000FFF7C8FA25204CE04448DFF83C81001FA9
:101FD000DFF838E1C44511D1046844F400340460EA
:101FE000006800F40030059060208DE88F0069469D
:101FF0007046FFF72DF907B0BDE8F08FDFF81081CC
:10200000C44531D1D0F800C04CF4802CC0F800C0D9
:10201000006800F4802005904FF440708DE88F0038
:1020200069467046FFF714F93B4F3A483860C7E9F4
:1020300001A4C7E903467C61BC61C7E9074B384688
:102040007C62FFF74DF820B140F2231127A001F088
:1020500049F86F63002201212720BD63FFF77AFA58
:102060002720FFF76BFAC6E72C488445C3D1D9F87F
:10207000007047F02007C9F80070D9F8000000F0A0
:10208000200005904FF484408DE80F000820049054
:1020900069462348FFF7DCF81248224F18383860A9
:1020A0008005C7E90104C7E903467C61BC61FC61A6
:1020B0003C6238467C62FFF713F820B14FF4A871F8
:1020C0000AA001F00FF86F63002202214720BD63D0
:1020D000FFF740FA4720C4E70010014044380240AF
:1020E0000004024040640240A00100202E2E2F5325
:1020F00072632F73746D3332663478785F68616C05
:102100005F6D73702E63000000440040000C0240BD
:1021100000480040286002400002002000140140F6
:102120000018024060020020F8B5044690F83A001A
:1021300020283CD1C1B3BAB394F83800012836D076
:10214000012084F83800A162A2850025E5632220E1
:1021500084F83A00636B1748D863636B16481864B9
:10216000636B1648D864606B134605650846666B5A
:10217000216802463046091DFFF71CF820680168F7
:102180004168009184F83850C16841F48071C160A1
:102190002068416941F0010141612068416941F0D5
:1021A000400141610020F8BDFFE70120FBE702206C
:1021B000F9E700002F2B00086B2B0008E52A000828
:1021C000704770472DE9F843044690F839001F46E0
:1021D00016460D46202850D1A5B19EB194F838007E
:1021E00001284AD0012084F838004FF00008C4F8D4
:1021F0003C80212084F83900FFF716F9A684814637
:10220000E68426E00120BDE8F883E08C401EE084EF
:10221000A0684B46B0F5805F4FF000024FF08001A0
:102220002046009703D000F08AFEE8B90DE000F0E8
:1022300086FEC8B928882168C0F308004860206974
:1022400008B16D1C05E0AD1C03E0216815F8010B19
:102250004860E08C0028D8D14B460022402120461F
:10226000009700F06CFE08B10320CCE7202084F832
:10227000390084F838800020C5E70220C3E77047A2
:10228000FEE7B0F900308B4200DC19460180914234
:1022900000DB0A46028070470F4810B50D49016007
:1022A0000921416000214FF04072C0E902124FF451
:1022B000803202611201426101760122427681760A
:1022C000C17601774177FEF71BFD002800D0FEE7BD
:1022D00010BD0000006400403C000020154808B517
:1022E000016841F400110160016801F400110091DE
:1022F000016841F4800101600068002200F4800060
:10230000009011460C20FFF725F90C20FFF716F975
:10231000002211463920FFF71DF93920FFF70EF989
:10232000002201213A20FFF715F9BDE808403A20C4
:10233000FFF704B93038024070B51F4886B000245A
:10234000016841F040010160016801F04001059120
:10235000016841F001010160016801F0010105918E
:10236000016841F002010160016801F0020105917C
:10237000016841F008010160016801F00801059160
:10238000016841F08001016000680C4E00F080009F
:102390004FF400550590002229463046FFF73EF8DD
:1023A00001200095CDE90104694630460394FEF70B
:1023B0004FFF06B070BD00003038024000180240E8
:1023C000FEE770470907090E002806DA00F00F0043
:1023D00000F1E02080F8141D704700F1E02080F843
:1023E000001470470844404200EE100A10B5B8EEE1
:1023F000C00A144682ED1F0AD2ED210A30EE801A7F
:1024000082ED211AD2ED1C0A60EE800AC2ED180A94
:10241000D2ED1D1A21EE811A82ED191AD2ED201A81
:1024200070EE810A0D4A30EE610AD4ED1E1A514257
:1024300020EE210A84ED1A0A30EE800ABDEEC00AB1
:1024400010EE100AA4F86C0004F16C00FFF719FFFD
:1024500094ED1F0A84ED200A10BD000030F8FFFF44
:10246000064951F8202001EB800082ED000A416806
:10247000C1ED000A806880ED001A704794030020C7
:10248000064951F8202001EB800082ED000A4168E6
:10249000C1ED000A806880ED001A70476C040020CE
:1024A00000B5E1B1012963D1B0F90010B0F9022003
:1024B000891A00EE101AB8EEC00A80ED060A00F084
:1024C000A3FEF0EE400A90ED070A00F09DFEF4EE48
:1024D000C00AF1EE10FA4CD390ED070A4DE0B0F9C6
:1024E0000010B0F90620891A00EE101A414AB8EE21
:1024F000C00A80ED060AD0ED080A70EE800A10EEE0
:10250000901AC0ED080A914201DDDFED3B0A3B4A1B
:1025100010EE901AC0ED080A914201D9DFED380A99
:1025200010EE102AC0ED080A90ED031AD0ED041A3F
:10253000344B21EE001A9A4201EEA01AD0ED070AA0
:10254000D0ED051A70EE600A01EEA01AFDEEC10A88
:1025500010EE901A09B2018104DC10EE102A2A4B09
:102560009A4203D9052291FBF2F1018180ED070A1D
:1025700000BD90ED060A80ED070A00F045FEF0EE82
:10258000400A90ED090A00F03FFEF4EEC00AF1EEB9
:1025900010FA03D290ED070A80ED090A90ED060AC1
:1025A000D0ED070AD0ED031AB0EE002A30EE601A23
:1025B000B0F9081021EE211AD0ED041A01EE801AAC
:1025C000F0EE401A40EEC21A90ED092A71EE821A1E
:1025D00090ED052A02EE211A01EE901AF8EEE11AAA
:1025E00031EE211ABDEEC11A11EE101A0181C0EDB3
:1025F000090ABBE700007A4400007A4400007AC46C
:1026000000007AC40000FA430000FAC330B50A782B
:102610004B78120212B21A430E4B0F4D5A800C79AE
:10262000497941EA04248480B3F90040111BA9428E
:1026300002DA818D491C8185A11AA94202DA818DB5
:10264000491E81851A8090F82C1002EB4131C1801F
:1026500030BD00001800002090E8FFFF7CB50D465B
:10266000044600F08DF82046FDF7BAFF00200090E8
:102670000190B4F90830B4F9382040F2FF1128462F
:10268000FDF7B0FE7CBD000030B539489FED370A3C
:10269000F1EE040A80ED060A80ED080A00F19C02C2
:1026A000C0ED030A00F10C01116080ED040A091D60
:1026B000516080ED050A091D916080ED070A002137
:1026C00001814180C180818040F674630380294C80
:1026D00040F6B83384622380856A5C426C808185D1
:1026E00080ED120A80ED140AC0ED0F0A00F13C05DE
:1026F000D56080ED100A2D1D156180ED110A2D1D8C
:10270000556180ED130A01874186C186818641F2B9
:10271000AA020286174A121D82651380826D5480B8
:10272000A0F85C10A0F86C1080ED1C0A80ED1D0A6A
:1027300080ED1E0A80ED1F0A80ED200A80ED210A3F
:1027400080ED220A80ED180A80ED190A80ED1A0A40
:10275000A0F89010A0F89210E10DA0F8941006498E
:10276000C0F88C100549C0F8981030BD000000007A
:10277000D00300201C0000204C050020812400080C
:10278000064841F2AA02B0F8901001F67461018087
:10279000B0F892101144018670470000D003002069
:1027A0004A6882B012680092A2F20122062A20D260
:1027B000DFE802F003060A0E1519896800680AE0CE
:1027C00000688968603006E000688968903002E03F
:1027D000006889683030083102B0FDF74BBE4068B0
:1027E0008968303001E089684068083102B0FFF73D
:1027F0000DBF02B070477047704710B5FEF71AFE64
:10280000BDE81040FFF7AFB930B5274893B00025B9
:10281000016841F080510160006800F08050119023
:102820002248016841F4404101600068022400F43C
:102830004040119001200090000401908001CDE9FA
:10284000064006200890B420CDE9090404200B902E
:102850006846FEF7D9FF00B1FEE7FEF7ADFE00B116
:10286000FEE70CA90F2081E831004FF4A0500F9033
:102870004FF48050109005210CA8FEF7D5FE00B152
:10288000FEE7FEF769FF4FF47A71B0FBF1F0FFF756
:1028900056F90420FFF746F900221146501EFEF7B4
:1028A00059FE13B030BD00004038024000700040B7
:1028B0001048016841F4700101600F48016841F05F
:1028C000010101600C4A00210832116002680B4BC3
:1028D0001A400260031D0A4A1A60026822F480222C
:1028E000026005480C3001600249580680390860D2
:1028F0007047000088ED00E000380240FFFFF6FE60
:102900001030002410B534482DED028B82B0007ACF
:10291000012854D002284ED1304C9FED318A03203B
:1029200054F8981FB0EE481AF0EE480AB0EE480A84
:1029300088472168B0EE481AF0EE480AB0EE480A1F
:1029400000208847274CB0EE481AF0EE480A54F8A9
:10295000D01FB0EE480A062088472168B0EE481A1A
:10296000F0EE480AB0EE480A002088472168B0EE31
:10297000481AF0EE480AB0EE480A09208847216854
:10298000B0EE481AF0EE480AB0EE480A0320884735
:1029900000240094234622464FF40071124801940B
:1029A000FDF720FD002300941A4640F2FF110E4867
:1029B0000194FDF717FD02B0BDEC028B10BD064976
:1029C0000A48FDF7F1FE02B007490448BDEC028B4E
:1029D000BDE81040FFF742BE04050020D0030020F0
:1029E00000000000C00200203C0000202400002065
:1029F00010B5FFF787FFBDE810400148FFF727B982
:102A000064000020F0B50268234B244D244E254F6E
:102A1000254C4FF0804C984209D0604507D0A84221
:102A200005D0B04203D0B84201D0A04204D122F078
:102A3000700E4A6842EA0E0298421BD0604519D0D7
:102A4000A84217D0B04215D0B84213D0A04211D03E
:102A5000164DA8420ED0164DA8420BD0154DA842D7
:102A600008D0154DA84205D0144DA84202D0144DEF
:102A7000A84203D122F44075CA682A4302608A68DA
:102A8000C2620A688262984201D0A04201D10969FB
:102A9000016301214161F0BD0000014000040040DC
:102AA00000080040000C00400004014000400140CC
:102AB000004401400048014000180040001C004054
:102AC0000020004002480021016041607047000082
:102AD0003000002010B5806B0021C185C184FFF754
:102AE00074F910BD70B5846B2068406994F8391092
:102AF000C0F3C0100025212904D118B1E584204677
:102B000000F046F82068406994F83A10C0F380104D
:102B1000222904D118B1E585204600F02BF8E06B9E
:102B200040F01000E0632046FFF74FF970BD10B58C
:102B30000146806B09680968C90513D40021C18565
:102B40000168CA6822F48072CA6001684A6922F08A
:102B500001024A6101684A6922F040024A6120216B
:102B600080F83A10FFF72CFB10BD10B5806BFFF713
:102B700028FB10BD0168CA6822F49072CA6001681F
:102B80004A6922F001024A61202180F83A10704718
:102B90000168CA6822F0C002CA60202180F839109A
:102BA000704710B590F83A10222901D0022010BDCC
:102BB0008168B1F5805F11D00169002901681FD0DB
:102BC000496801F07F03816A4A1C82620B70C18DE3
:102BD000491E0904090CC18518D026E00269816AE2
:102BE000002A0268526805D0D2B20A80816A491C64
:102BF0008162ECE7C2F308020A80816A891CF7E768
:102C00004A68816A4B1C83620A70E0E70168CA68FF
:102C100022F49072CA6001684A6922F001024A6196
:102C2000202180F83A10FFF7CBFA002010BD0000F9
:102C30002DE9F04104460068016921F44052E16841
:102C4000114301612168C86849F20C62904323690D
:102C5000A268E5691A4363692B431A430243CA60B9
:102C60002168486920F44072A06910434861E16915
:102C70006425B1F5004F9748974A21684FF0320814
:102C80003FD0914201D081427CD1FEF77BFD00EB29
:102C9000C00101EB001061688900B0FBF1F6FEF79E
:102CA00071FD00EBC00101EB001061688900B0FB11
:102CB000F1F0B0FBF5F06FF01801484306EB80012E
:102CC00008EB0110B0FBF5F000F0F006FEF75AFD3E
:102CD00000EBC00101EB001061688900B0FBF1F06E
:102CE000B0FBF5F006EB0016FEF74CFD00EBC00163
:102CF00001EB001061688900B0FBF1F7FEF742FDBF
:102D0000D2E0914201D081423DD1FEF73BFD00EB84
:102D1000C00101EB001061684900B0FBF1F0B0FBAD
:102D2000F5F00601FEF72EFD00EBC00101EB0010EF
:102D300061684900B0FBF1F7FEF724FD00EBC0012C
:102D400001EB001061684900B0FBF1F0B0FBF5F059
:102D50006FF01801484307EB800108EBC100B0FB9E
:102D6000F5F000F0F80006EB4006FEF70BFD00EB77
:102D7000C00101EB001061684900B0FBF1F7FEF7FC
:102D800001FD3CE055E0FEF7EDFC00EBC00101EB7E
:102D9000001061684900B0FBF1F0B0FBF5F00601EE
:102DA000FEF7E0FC00EBC00101EB00106168490098
:102DB000B0FBF1F7FEF7D6FC00EBC00101EB001011
:102DC00061684900B0FBF1F0B0FBF5F06FF018015D
:102DD000484307EB800108EBC100B0FBF5F000F0C1
:102DE000F80006EB4006FEF7BDFC00EBC00101EB6E
:102DF000001061684900B0FBF1F7FEF7B3FC00EB8F
:102E0000C00101EB001061684900B0FBF1F0B0FBBC
:102E1000F5F06FF01801484307EB800108EBC100A3
:102E2000B0FBF5F000F00700216830448860BDE891
:102E3000F081FEF797FC00EBC00101EB0010616828
:102E40008900B0FBF1F6FEF78DFC00EBC00101EB51
:102E5000001061688900B0FBF1F0B0FBF5F06FF095
:102E60001801484306EB800108EB0110B0FBF5F0B8
:102E700000F0F006FEF776FC00EBC00101EB00105D
:102E800061688900B0FBF1F0B0FBF5F006EB0016CD
:102E9000FEF768FC00EBC00101EB001061688900DF
:102EA000B0FBF1F7FEF75EFC00EBC00101EB001098
:102EB00061688900B0FBF1F0B0FBF5F06FF018012C
:102EC000484307EB800108EB0110B0FBF5F000F080
:102ED0000F00A9E7001401400010014090F83910DC
:102EE000212901D0022070478168B1F5805F016A15
:102EF0000BD04A1C0262026809785160C18C491EDD
:102F00000904090CC1840ED017E009880268C1F3D6
:102F10000801516001690029016A02D0491C01625F
:102F2000ECE7891CFBE70168CA6822F08002CA60EE
:102F30000068C16841F04001C160002070472DE980
:102F4000F041984617460E460446069D1DE0681C53
:102F50001BD02DB1FEF768FAA0EB0800A84214D9E7
:102F60002068C16821F4D071C1602068416921F0F6
:102F700001014161202084F8390084F83A000020E2
:102F800084F838000320BDE8F0812068006836EA44
:102F9000000004D00020B842D9D00020F3E701207F
:102FA000F9E7000010B5044800F086F8BDE81040CD
:102FB0000148FEF70BBF0000A00000200148FEF70B
:102FC00005BF00002001002010B5044800F00AF8F9
:102FD000BDE810400148FEF7F9BE00006001002086
:102FE000FEE7000038B504460068016840680090BC
:102FF000606B00684068012801D1FDF767F9204641
:10300000BDE8384013220149FFF78EB8380500208B
:1030100070B50C460546FDF7C1F92846FDF74AFF95
:1030200002212846FDF7F2FBFDF706FAFDF7C8F985
:103030000348A0601C3860601838206070BD000034
:10304000B804002010B514491448FDF799F9144943
:103050001448FFF7DDFFFDF71DFAFFF715FBFDF73D
:103060002DFBFFF72FFDFDF7BDFB0F48FEF7E2FD3F
:103070000E480068C16841F01001C1600C4800684A
:10308000C16841F01001C1600122BDE81040510348
:103090000848FEF7C3B90000D0030020C00200209A
:1030A000C40300203C00002064000020A000002099
:1030B000600100200018024038B50446006801682D
:1030C00040680090606B00684068012801D1FDF7FE
:1030D000BDFA2046BDE8384013220149FFF724B865
:1030E000F0040020FEE702E008C8121F08C1002A11
:1030F000FAD170477047002001E001C1121F002A79
:10310000FBD170471CB5FEF79DF9FFF77DFBFFF77C
:1031100013F9FFF7E3F835483349002401603449D7
:10312000C0E901144FF48061C0E903410C25C0E9F6
:103130000554C461FEF7D2FE00B1FEE7FFF7ACF81C
:103140002A482C493C38016040F28331C0E901141F
:1031500040F2E731C160FEF734FD00B1FEE72348DD
:10316000009469463C380194FEF703FD00B1FEE788
:103170001E48214940304FF4E1360160C0E9016446
:10318000C460C0E904458461C461FEF7A7FE00B1D4
:10319000FEE71648194980300160C0E90164C46047
:1031A000C0E904458461C461FEF798FE00B1FEE702
:1031B0000E481349C0300160C0E90164C460C0E931
:1031C00004458461C461FEF789FE00B1FEE7FFF7A4
:1031D00039FF3220FEF72AF80A4D28780128FCD161
:1031E000FDF73EF92C70F8E700100140A000002028
:1031F000A086010000140040004400400048004048
:103200000014014014000020B5EEC00AF1EE10FADF
:1032100001D2B1EE400A70470006101600061016E3
:103220000000000000000000010203040607080976
:1032300000000000010203045832000800000020D2
:103240003C000000E6300008943200083C000020FA
:103250002C090000F63000080100000010000000FA
:10326000000000000024F400025A5A000000000090
:10327000000000000000000000000000000000004E
:10328000000000000000000000000000000000003E
:04329000000000003A
:04000005080001AD41
:00000001FF
