:020000040800F2
:10000000680C0020C1010008BD3A00080F36000846
:10001000B93A00087D070008AD4B00080000000059
:10002000000000000000000000000000B93F0008D0
:10003000790F000800000000873F00085D400008BD
:10004000DB010008DB010008DB010008DB01000820
:10005000DB010008DB010008DB010008DB01000810
:10006000DB010008DB010008DB010008DB01000800
:10007000C10C0008DB010008DB010008DB010008FF
:10008000DB010008DB010008DB010008DB010008E0
:1000900081070008DB010008DB010008DB01000824
:1000A000DB010008DB010008DB010008DB010008C0
:1000B000DB010008DB010008DB010008DB010008B0
:1000C000DB010008DB010008DB010008DB010008A0
:1000D000DB010008754B0008DB010008894B0008B4
:1000E000DB010008DB010008DB010008DB01000880
:1000F000DB010008DB010008DB010008DB01000870
:10010000DB010008DB010008DB010008DB0100085F
:10011000DB010008DB010008DB01000819430008CF
:10012000DB010008D10C0008E10C0008DB0100082D
:10013000DB010008DB010008DB010008DB0100082F
:10014000DB010008DB010008DB010008DB0100081F
:10015000DB010008DB010008DB010008994B000807
:10016000DB010008DB010008DB010008DB010008FF
:10017000DB010008DB010008DB01000800000000D3
:10018000DB010008DB010008DB010008DB010008DF
:10019000DB010008DB010008DB010008DB010008CF
:1001A0000000000000000000DB010008DFF80CD0B8
:1001B00000F032FA00480047ED4D0008680C0020BE
:1001C0000648804706480047FEE7FEE7FEE7FEE7F1
:1001D000FEE7FEE7FEE7FEE7FEE7FEE75541000823
:1001E000AD0100082DE9F05F0546002092469B46D0
:1001F00088460646814640241BE02846414647463D
:10020000224600F08AF953465A46C01A914110D34B
:1002100011461846224600F071F92D1A67EB0108C5
:100220004F4622460120002100F068F917EB000933
:100230004E41201EA4F10104DFDC484631462A4627
:100240004346BDE8F09F40EA01039B0703D009E065
:1002500008C9121F08C0042AFAD203E011F8013BB2
:1002600000F8013B521EF9D270472DE9FE4F80463F
:1002700081EA0300C00F0C46009021F0004123F0FA
:100280000045B8EB0200A94105D240462146904600
:100290001C460B46024623F00040104347D0270D72
:1002A000C7F30A00C3F30A510290401A0190402894
:1002B0006BDAC3F3130040F4801B0098924620B120
:1002C0000023D2EB030A63EB0B0B01985946C0F1F4
:1002D0004002504600F012F906460D465046594677
:1002E000019A00F02AF910EB08006141002487EA26
:1002F000115284EAE7731A4340D0009A62B3019A1C
:10030000012A4FEA075215DC001B61EB02014FF096
:10031000004202EA0752CDE90042001C41F580117B
:1003200032462B4600F02AF903B0BDE8F08F404674
:100330002146F9E7001B61EB0201001C41F5801327
:1003400000185B412018A2F5001747EB030140EAB3
:10035000D570B6196D4111E06D084FEA360645EAD1
:10036000C0754FEA0752001B61EB0201001C41F50A
:10037000801149084FEA30000019514132462B469E
:1003800003B0BDE8F04F00F0EAB800980122400049
:100390000023D0EB020263EBE073009821464FEAA2
:1003A000E074B8EB000061EB0401E9E783F000437F
:1003B0005BE781F0004158E72DE9FE4F81EA030435
:1003C00004F0004421F0004100944FF0000B23F0B2
:1003D000004350EA01045ED052EA03045BD0C3F349
:1003E0000A54C1F30A552C44A4F2F3340194A0FB3F
:1003F0000254C1F3130141F48011C3F3130343F416
:10040000801301FB024400FB034E840A970A44EA6E
:10041000815447EA8357A4FB076802958D0A05FBC0
:1004200007854FEA932C04FB0C542705029D4FEAE5
:10043000065847EA1637B5EB08056EEB070C870E32
:10044000920E47EA811742EA8312A7FB0201B6EB3C
:100450000B0164EB00042B0D43EA0C335E1844EBF4
:100460001C50DA465146E7FB0201C5F313044FEA7C
:100470000B3343EA14534FEA0432019C43EA060368
:10048000A4F10C040294009CCDE900B400F076F8CD
:1004900003B0BDE8F08F00200146F9E70EB5C10FAB
:1004A00080EAE0700844CA07002140F233438DE837
:1004B0000E000A460B4600F061F803B000BD70B5AF
:1004C000C1F30A5201F000450024C1F3130140F2C8
:1004D000FF3341F480119A4201DA002070BD40F2EE
:1004E00033439A42A2F2334203DC524200F015F841
:1004F00000E090402C43F1D0404270BD202A04DB44
:10050000203A00FA02F1002070479140C2F1200326
:1005100020FA03F3194390407047202A04DB203A65
:1005200021FA02F00021704721FA02F3D040C2F113
:1005300020029140084319467047202A06DBCB175A
:10054000203A41FA02F043EAE07306E041FA02F38E
:10055000D040C2F12002914008431946704710B5BF
:10056000141E73F1000408DA401C41F100019218D6
:100570005B411A4301D120F0010010BD2DE9F04D7F
:1005800092469B4611B1B1FA81F202E0B0FA80F2D4
:1005900020329046FFF7B2FF04460F4640EA0A00B9
:1005A00041EA0B0153465A46084313D0114653EA19
:1005B000010019D0C8F140025046FFF7AEFF0546D2
:1005C0000E46504659464246FFF798FF084305D06D
:1005D000012004E020463946BDE8F08D00200543A7
:1005E00046EAE0762C4337430A986305E40AA0EB19
:1005F00008000022FD0A44EA47540A3002D50020D0
:100600000146E9E7010510196941DDE908450019CE
:100610006941BDE8F04DA2E7064C074D06E0E068F1
:1006200040F0010394E8070098471034AC42F6D339
:10063000FFF7C0FD444F0008644F000847480078AA
:100640005A287CD1454840785A2878D1002044491E
:100650000870444908700DE0404842490978405C00
:100660003F49097808443E4908703E480078401CDC
:100670003C4908703948C078001D3A4909788842D9
:10068000EADC364837490978405C354909788842C0
:1006900062D13248807800F0040004281AD12F4833
:1006A00040792E49097940EA012000B22E4908809C
:1006B0002A48C0792949897940EA012000B22A49AB
:1006C00048802648407A2549097A40EA012000B24C
:1006D000254988802148807800F00800082836D114
:1006E0001E48C07A1D49897A40EA012000EE100AAE
:1006F000B8EE400ADFED1D0A80EE201A1A4880EDA0
:10070000021A1648407B1549097B40EA012000B2D5
:1007100000EE100AB8EEC00ADFED140A80EE201ACF
:10072000114880ED031A0D48C07B0C49897B40EAD3
:10073000012000B200EE100AB8EEC00A00E00BE0A3
:10074000DFED0A0A80EE201A074880ED041A0648F9
:10075000808A401C0449888270470000F40500200C
:100760007000002071000020080600200000C84230
:10077000014A1060516070475800002000BFFEE73A
:1007800010B5024800F0B9FF10BD0000A400002021
:1007900010B5044600200949086048608860C860B8
:1007A000086148610120C861002088610120086259
:1007B0000E204862204600F049FE10BD6C05002066
:1007C0000020084908604860086107490872002154
:1007D000054841728172C172017341738173C173A3
:1007E00070470000400500205C0500202DE9F0471F
:1007F00081460E4614461D46DDE908781A48006811
:100800000660002018490968886017490968C860AF
:100810000820154909680861200A13498968087089
:10082000114989684C70280A0F49896888700E49F7
:100830008968CD70380A0C49896808710A49896845
:100840004F714FEA182008498968887106498968FC
:1008500081F807800448826801230168484600F057
:1008600060FDBDE8F0870000680400200020084912
:1008700008608860C8600820086100200549087089
:1008800048708870C870087148718871C871704765
:10089000280500205C0500200A78120212B24B786D
:1008A0001A43C2808A78120212B2CB781A4342806D
:1008B0000A79120212B24B791A4382807047000003
:1008C00000207849A1F8C000A1F8C2009FED760A87
:1008D000084680ED310A42F22830A1F8CA004DF6F0
:1008E000D840A1F8CC004FF40070A1F8C800002057
:1008F000088048808880C8800881B1EE080A0846D0
:1009000080ED030A0C30694908609FED690A0C38D4
:1009100080ED040A103048609FED630A103880EDC6
:10092000050A143088609FED600A143880ED060ACD
:100930009FED5D0A80ED070A9FED5B0A80ED080AD6
:100940000020584988629FED580A084680ED090A40
:100950000020888508860021524841868186C1860C
:100960000187B1EE080A80ED0F0A3C304F49C8609C
:100970009FED4F0A3C3880ED100A403008619FED32
:100980004A0A403880ED110A443048619FED460A1A
:10099000443880ED120A9FED440A80ED130A9FED62
:1009A000420A80ED140A002181659FED3F0A80ED27
:1009B000150AA0F85C1000203A49A1F86000002157
:1009C0003848A0F86210A0F86410A0F86610A0F8EB
:1009D0006810B1EE080A80ED1B0A6C30334988615B
:1009E0009FED330A6C3880ED1C0A7030C8619FEDB2
:1009F0002E0A703880ED1D0A743008629FED2A0AB5
:100A0000743880ED1E0A9FED280A80ED1F0A9FEDC5
:100A1000260A80ED200A0021C0F888109FED220AE6
:100A200080ED210AA0F88C1000201E49A1F890004A
:100A300000211C48A0F89210A0F89410A0F896107D
:100A4000A0F89810B1EE080A80ED270A9C301749EB
:100A500048629FED170A9C3880ED280AA030886212
:100A60009FED110AA03880ED290AA430C8629FEDDD
:100A70000E0AA43880ED2A0A9FED0B0A80ED2B0A9E
:100A80009FED090A80ED2C0A0021C0F8B8109FEDF7
:100A9000060A80ED2D0AA0F8BC1006480149C1F8ED
:100AA000D0007047640300200000000038040020DC
:100AB000CDCCCC3DAD3B000810B50446204600F03F
:100AC0005DFAA06AB0F90220B0F9001004F1080044
:100AD00002F09FFD20891D490880D4F88C00B0F9F0
:100AE000020000EE900AF8EEE00AB0EE600A184844
:100AF0000178184803F062FA174880ED000AB4F94B
:100B000008002246144991ED000ABDEEC00A10EE1D
:100B1000101A09B202F0FCFFB4F96C0000EE900A62
:100B2000F8EEE00AB0EE600A04F044F9BDEEC00A47
:100B300010EE100A00B22081B4F908100748084AE4
:100B400043680248B0F90000984710BD1C0000201F
:100B500098000020200600201800002074000020CB
:100B60008401002010B5202240494148FFF76BFB6B
:100B7000404800783F49497840EA0120C0F30A0024
:100B80003A49088008460088A0F5806000B20880D5
:100B900038484078C0103749897840EA4110C0F39E
:100BA0000A003249488008464088A0F5806000B2BB
:100BB00048803048807880112E49C97840EA810009
:100BC0002C49097940EA8120C0F30A00274988802E
:100BD00008468088A0F5806000B2888025480079AA
:100BE00040102449497940EAC110C0F30A001F4966
:100BF000C8800846C088A0F5806000B2C8801D4843
:100C000040790011800808721A484079C0F3011039
:100C10004872184880791749C97940EA012000B222
:100C2000124988811348007A1249497A40EA012022
:100C300001B20E48C1810F48807A0E49C97A40EA54
:100C4000012001B2094801820A48017B07488174EA
:100C50000848417B0548C1740648807B0549C97B2B
:100C600040EA01200149C88210BD0000A80500200B
:100C7000C80500209405002003200E4908700020BC
:100C80000D49088048808880C880888100210A48F2
:100C9000C18101828174C1740175417500200649CA
:100CA000C882002104480183002003494881034889
:100CB000C861704764000020A8050020E8050020F6
:100CC00010B5024800F09EFF10BD0000A4020020F5
:100CD00010B5024800F096FF10BD0000040300208C
:100CE00010B5024800F08EFF10BD00004402002045
:100CF0000146087810381823B0FBF3F20848805CEE
:100D0000C865032A05D908686FF30900001D8865C6
:100D100003E008686FF309008865886D704700007C
:100D2000244F0008014600208A6A8B69CBB932B192
:100D3000012A0DD0022A03D0032A10D10EE000BFF1
:100D4000CB6A03F08073B3F1807F00D1012007E00C
:100D5000CB6AB3F1C07F00D1012001E000E000BF09
:100D600034E08B69B3F5005F1AD132B1012A07D0A4
:100D7000022A03D0032A11D10AE000BF01200EE0AD
:100D8000CB6A03F08073B3F1807F00D1012006E0CD
:100D9000CB6AB3F1C07F00D1012000E000BF15E0B5
:100DA00032B1012A05D0022A04D0032A0CD103E073
:100DB00000BF00BF012008E0CB6A03F08073B3F1ED
:100DC000807F00D1012000E000BF00BF704730B538
:100DD0000468246824F4802405682C600468636037
:100DE0008468402C04D10468A2600468E16003E0D8
:100DF0000468A1600468E26030BD000070B52DEDAC
:100E0000088B04460D46B5F90600142806DAB5F934
:100E1000060010F1140F01DD0020E880B5F9040090
:100E2000142806DAB5F9040010F1140F01DD0020D2
:100E3000A880B5F90000142806DAB5F9000010F111
:100E4000140F01DD00202880B5F9060000EE100A1D
:100E5000B8EEC00A4248D0ED000A20EE200ABDEEEE
:100E6000C00A10EE100A00B22168A1F8C000B5F95E
:100E7000040000EE100AB8EEC00A3948D0ED000AAE
:100E800020EE200ABDEEC00A10EE100A00B2216862
:100E9000A1F8C200B5F9000000EE100AB8EEC00AD1
:100EA0002F48D0ED000A20EE200A206880ED310A9C
:100EB0002168B1F9C0002B4A514202F0D6FB2168EB
:100EC000A1F8C0002168B1F9C200264A514202F0DF
:100ED000CCFB2168A1F8C200216891ED310ABDEE7A
:100EE000C00A10EE101A08B21F4A514202F0BDFBB0
:100EF00000EE100AB8EEC00A206880ED310A698859
:100F0000494208B2FFF7CAFA41EC1B0B9FED170BE1
:100F100053EC102BFFF750FA41EC190B6168B1F953
:100F20009000FFF7BBFA41EC1A0B53EC192BFFF7BB
:100F30009CF941EC180BFFF7C2FA00B26168A1F806
:100F400090006168B1F990000A4A4FF4FA6102F02A
:100F50008CFB6168A1F89000BDEC088B70BD0000AF
:100F600020000020C0E0FFFF78ECFFFF7B14AE47BD
:100F7000E17A843F44FDFFFF7047000000B5014661
:100F8000B1F90000B1F90620801A00EE100AB8EE9F
:100F9000C00A81ED060A91ED080AD1ED060A30EE8D
:100FA000200A81ED080AD1ED080AB0EE600A9FED33
:100FB000AA1ADFEDAA0A02F03FFB81ED080A91EDC3
:100FC000060AD1ED070A30EE600AA54880ED000A56
:100FD000D1ED060AB0EE600A03F09BFEA14880ED59
:100FE000000A90ED000AA048D0ED000AB4EEE00A35
:100FF000F1EE10FA20DD91ED030A9C48D0ED000AD5
:1010000030EE200AD1ED060A20EE200ABDEEC00A1D
:1010100010EE100A00B2964A10801046B0F9000097
:10102000088191ED070A81ED090A91ED060A81ED2B
:10103000070AB1F9080000BD91ED060A8848D0ED15
:10104000000A20EE200ADFED8B0AB4EEE00AF1EE92
:1010500010FA3BDDD1ED060AB0EE600A03F059FE4E
:101060008548D0ED000AB4EEE00AF1EE10FA11DD89
:1010700091ED030A8148D0ED000A30EE200AD1ED4F
:10108000060A20EE200ABDEEC00A10EE100A00B2D9
:10109000774A108091ED030AD1ED060A20EE200A6E
:1010A000BDEEC00A10EE100A00B2714A1080104660
:1010B000B0F90000088191ED070A81ED090A91ED70
:1010C000060A81ED070AB1F90800B4E791ED060AB6
:1010D000D1ED070A20EE200AB5EEC00AF1EE10FAB3
:1010E00006DA91ED060AB5EEC00AF1EE10FA2BD140
:1010F00091ED030AD1ED060A20EE200ABDEEC00AEA
:1011000010EE100A00B25A4A108091ED050A5448B8
:10111000D0ED000A20EE200ABDEEC00A10EE100A43
:1011200000B2574A1080524800881288104400B21A
:10113000088191ED070A81ED090A91ED060A81ED1A
:10114000070AB1F9080076E791ED060AD1ED090A20
:1011500020EE200AB5EEC00AF1EE10FA7AD2D1EDF7
:10116000060AB0EE600A03F0D4FD4648D0ED000A4E
:10117000B4EEE00AF1EE10FA20DD91ED030A4248E8
:10118000D0ED000A30EE200AD1ED060A20EE200A4A
:10119000BDEEC00A10EE100A00B2354A10801046AB
:1011A000B0F90000088191ED070A81ED090A91ED7F
:1011B000060A81ED070AB1F908003CE7D1ED060AFD
:1011C000B0EE600A03F0A5FD2E48D0ED000AB4EEA3
:1011D000E00AF1EE10FA3DD291ED030AD1ED060AD4
:1011E00020EE200ABDEEC00A10EE100A00B2204A1E
:1011F000108091ED040AD1ED080A20EE200ABDEE20
:10120000C00A10EE100A00B2204A108091ED050AC3
:101210001348D0ED000A20EE200ABDEEC00A10EE01
:10122000100A00B2164A108011480088174A128826
:101230001044134A1288104400B2088191ED070A45
:1012400081ED090A91ED060A81ED070AB1F908005E
:10125000F1E6FFE70020EEE600007AC400007A44E1
:101260003000002040000020340000202400002036
:10127000460000200000C84238000020280000205E
:10128000480000203C0000202C0000204A000020E4
:1012900000200A490880488088809FED090A084696
:1012A00080ED020A9FED060A80ED030A9FED040A15
:1012B00080ED040A002088827047000008060020A4
:1012C0000000000070B50546242003F0ADFD044683
:1012D0002CB9242221462846FEF7B5FF70BD002018
:1012E00084F8200084F82100242221462846FEF7B5
:1012F000AAFF00BFF2E7024692F82000012803D0BF
:1013000092F82000022806D110684069084313684B
:10131000586100207047506A40F4802050620120DC
:10132000F8E770B504460D46A86800B900E000BFB4
:1013300094F82000012803D094F8200002287FD1DF
:101340002068806800F0806050B92068806800F0F4
:10135000006028B92068806800F08050002869D0BB
:1013600020688068C0F30161012088401860A86887
:1013700050B92E88E86840EA4656206800F5C070EB
:1013800000EB011006600BE0D5E9016040EAC60001
:10139000EE683043266806F5C07606EB011630602D
:1013A0002E69206800F5C07000EB01104660287DB2
:1013B00001280DD1206800F5C07000EB01104068D5
:1013C00040F48076206800F5C07000EB01104660A4
:1013D000D0790006967940EA0640567940EA06261A
:1013E00010790643206800F5C07000EB0110C6605C
:1013F000D0780006967840EA0640567840EA062003
:1014000016783043266806F5C07606EB0116B06004
:10141000206800F5C07000EB0110006840F0010684
:10142000206800F5C07000EB01100660002070BD60
:1014300006E0FFE7606A40F4001060620120F6E712
:10144000606A40F4802060620120F0E770B50446D5
:101450000A460023216894F82000012803D094F85C
:10146000200002287CD1414901F50071086840F054
:1014700001000860086820F47C5008600868556A1C
:1014800040EA05200860157D012000FA05F3C869CF
:101490009843C861A1F50071D069C8B9D1F80C02B0
:1014A0009843C1F80C02908880B2958940EA0545BE
:1014B00001F51070566940F83650108880B21589D1
:1014C00040EA054501F51070566900EBC60045601D
:1014D000D069012819D1D1F80C021843C1F80C02C7
:1014E000908880B2158840EA054501F5107056696C
:1014F00040F83650908980B2158940EA054501F5DB
:101500001070566900EBC6004560906928B9D1F8A3
:1015100004029843C1F8040204E0D1F8040218431D
:10152000C1F80402106928B9D1F814029843C1F82F
:10153000140204E0D1F814021843C1F81402106A2E
:10154000012804D1D1F81C021843C1F81C02D1F8BB
:10155000000220F00100C1F80002002070BDFFE78A
:10156000606A40F4802060620120F7E70064004078
:10157000704730B5044694F82000012803D094F851
:10158000200002287DD151B92068C06800F0030016
:1015900090B9606A40F400106062012030BD0129FA
:1015A0000AD12068006900F0030028B9606A40F49D
:1015B000001060620120F1E7206800F5D87000EBB0
:1015C0000110006800F004009060906840B9206845
:1015D00000F5D87000EB01100068400D106007E0C6
:1015E000206800F5D87000EB01100068C00850605A
:1015F000206800F5D87000EB0110006800F00200D0
:101600004008D060206800F5D87000EB01104068F9
:1016100000F00F001061206800F5D87000EB011099
:10162000406800F47F40000A9061206800F5D8709F
:1016300000EB01104068000C5061206800F5D87084
:1016400000EB011080681870206800F5D87000EB7E
:101650000110806800F47F40000A5870206800F58F
:10166000D87000EB0110806800F47F00000C9870C7
:10167000206800F5D87000EB01108068000ED8706B
:1016800000E034E0206800F5D87000EB0110C0687D
:101690001871206800F5D87000EB0110C06800F4E4
:1016A0007F40000A5871206800F5D87000EB0110E7
:1016B000C06800F47F00000C9871206800F5D870B5
:1016C00000EB0110C068000ED87131B92068C06805
:1016D00040F020002568E86007E0012905D1206876
:1016E000006940F0200025682861002056E7606A04
:1016F00040F480206062012050E72DE9F05F04464D
:101700000025206846692068D0F804902068876822
:101710002068D0F80CA02068D0F810B02068D0F86D
:10172000188006F00100002855D007F00100C0B174
:1017300001202168886007F0020018B1204600F0FF
:1017400047FA0EE007F0040010B145F4006508E028
:1017500007F0080010B145F4805502E0204600F083
:1017600036FA07F48070C8B14FF480702168886041
:1017700007F4007018B1204600F02CFA0EE007F4D0
:10178000806010B145F4005508E007F4006010B126
:1017900045F4804502E0204600F01BFA07F4803053
:1017A000C8B14FF480302168886007F4003018B168
:1017B000204600F011FA0EE007F4802010B145F445
:1017C000004508E007F4002010B145F4803502E040
:1017D000204600F000FA06F0080038B10AF01000C8
:1017E00020B145F4007510202168C86006F004009F
:1017F00040B10AF0080028B108202168C8602046DE
:1018000000F094F906F0020038B12068C06800F0DA
:10181000030010B1204600F08BF906F0400038B10B
:101820000BF0100020B145F480651020216808619C
:1018300006F0200040B10BF0080028B10820216814
:101840000861204600F090F906F0100038B12068D9
:10185000006900F0030010B1204600F086F906F49C
:10186000003040B109F0100028B110202168486014
:10187000204600F07BF906F4803040B109F0080002
:1018800028B1082021684860204600F0A6F906F437
:10189000004088B309F0040078B306F4807020B1EA
:1018A00008F0010008B145F0010506F4007020B110
:1018B00008F0020008B145F0020506F4806020B18E
:1018C00008F0040008B145F0040506F40060A0B17A
:1018D00008F0700088B108F07000402817D006DCCE
:1018E00010280BD020280CD0302819D10CE050281B
:1018F00010D0602814D110E01DE019E045F0080573
:101900000FE045F010050CE045F0200509E045F03A
:10191000400506E045F0800503E045F4807500E0F1
:1019200000BF00BF2068806920F0700021688861D6
:101930000420216848602DB1606A28436062204617
:10194000FFF716FEBDE8F09F70B5044600250CB900
:10195000012070BD94F8200010B9204600F0B0F8C6
:101960002068006820F002002168086000F058FC40
:1019700005460DE000F054FC401B0A2808D9606AB7
:1019800040F400306062052084F820000120E0E788
:101990002068406800F002000028EBD12068006851
:1019A00040F001002168086000F03AFC05460DE0B7
:1019B00000F036FC401B0A2808D9606A40F4003069
:1019C0006062052084F820000120C2E7206840689A
:1019D00000F001000028EBD0207E012806D120680D
:1019E000006840F080002168086005E02068006819
:1019F00020F0800021680860607E012806D1206800
:101A0000006840F040002168086005E02068006838
:101A100020F0400021680860A07E012806D12068DF
:101A2000006840F020002168086005E02068006838
:101A300020F0200021680860E07E012806D120689F
:101A4000006820F010002168086005E02068006848
:101A500040F0100021680860207F012806D120682E
:101A6000006840F008002168086005E02068006810
:101A700020F0080021680860607F012806D12068F6
:101A8000006840F004002168086005E020680068F4
:101A900020F0040021680860D4E9020108432169AC
:101AA0000843616908436168491E08432168C861A9
:101AB00000206062012084F82000002049E7000037
:101AC00010B586B0044616492068884225D100BF6B
:101AD000002000901348006840F000701149086031
:101AE0000846006800F00070009000BF00BF0320AF
:101AF000019002200290012003900320049009200D
:101B0000059001A9084800F077FA0022022114206C
:101B100000F037FC142000F027FC06B010BD0000D8
:101B20000064004040380240000C02407047000052
:101B300010B504460949206888420DD108488068DC
:101B400000F108030648002142682046FFF711FD16
:101B50000349044802F0D2F910BD000000640040BF
:101B6000680400205800002070477047704770B527
:101B70000446002594F82000012822D1022084F890
:101B800020002068006820F001002168086000F053
:101B900047FB05460DE000F043FB401B0A2808D92F
:101BA000606A40F400306062052084F82000012063
:101BB00070BD2068406800F001000028EBD1606231
:101BC000F6E7606A40F4002060620120F0E77047A9
:101BD000704770477047704770477047014691F8EB
:101BE0003500022803D08020486501207047052079
:101BF00081F835000868006820F001000A6810606C
:101C00000020F3E7F8B50446002000908C480068F7
:101C10004FF41651B0FBF1F7A56D2E6894F85C10E7
:101C200008208840304098B12068006800F0040027
:101C300070B12068006820F004002168086094F802
:101C40005C1008208840A860606D40F0010060656D
:101C500094F85C1001208840304068B120684069E9
:101C600000F0800040B194F85C1001208840A8602A
:101C7000606D40F00200606594F85C1004208840BC
:101C8000304068B12068006800F0020040B194F86C
:101C90005C1004208840A860606D40F0040060651E
:101CA00094F85C1010208840304078B320680068B9
:101CB00000F0080050B394F85C1010208840A86031
:101CC0002068006800F4802080B12068006800F47B
:101CD000002028B9206CC8B12046216C884715E047
:101CE000A06C98B12046A16C88470FE0206800687E
:101CF00000F4807028B92068006820F0080021688E
:101D00000860206C10B12046216C884794F85C1064
:101D1000202088403040002865D02068006800F00E
:101D2000100000285FD094F85C1020208840A86044
:101D300094F83500052828D12068006820F01600A6
:101D4000216808602068406920F0800021684861AF
:101D5000206C08B9A06C28B12068006820F0080049
:101D60002168086094F85C103F208840A86000BF9C
:101D7000002084F8340000BF012084F83500206D75
:101D800010B12046216D8847F8BD2068006800F436
:101D9000802080B12068006800F4002028B9606CC1
:101DA00010B12046616C88471DE0E06BD8B1204639
:101DB000E16B884717E02068006800F4807068B91C
:101DC0002068006820F010002168086000BF002033
:101DD00084F8340000BF012084F83500E06B10B1B6
:101DE0002046E16B8847606D38B3606D00F00100FC
:101DF000F0B1052084F835002068006820F001006B
:101E00002168086000BF0098401C0090B84200D9CB
:101E100005E02068006800F001000028F3D100BF51
:101E200000BF002084F8340000BF012084F8350092
:101E3000E06C10B12046E16C884700BFA4E70000C9
:101E40000C0000202DE9F0410446002500F0E8F9DF
:101E5000074614B90120BDE8F081606A00B100BFF7
:101E600000BF002084F8340000BF022084F8350051
:101E70002068006820F00100216808600AE000F096
:101E8000CFF9C01B052805D920206065032084F800
:101E90003500E0E72068006800F001000028EED17E
:101EA0002068056821480540D4E901010843E1683C
:101EB00008432169084361690843A1690843E1694E
:101EC0000843216A08430543606A042803D1D4E922
:101ED0000B0108430543206805602068456925F02B
:101EE0000705606A0543606A04280DD1A06A0543AE
:101EF000E06A48B12046FEF715FF28B14020606532
:101F0000012084F83500A6E7206845612046FEF7E9
:101F1000EFFE064694F85C103F208840B060002039
:101F20006065012084F83500002094E73F8010F0C0
:101F30002DE9F04704460D4616461F464FF00008AF
:101F4000D4F8589000BF94F83400012802D1022040
:101F5000BDE8F087012084F8340000BF94F8350014
:101F600001282BD1022084F83500002060653B4613
:101F7000324629462046FEF72AFF94F85C103F209F
:101F80008840C9F808002068006840F01600216801
:101F900008602068406940F0800021684861206C3A
:101FA00028B12068006840F00800216808602068B7
:101FB000006840F001002168086006E000BF0020D2
:101FC00084F8340000BF4FF002084046C0E700002C
:101FD00070B5044600F024F906462546681C10B189
:101FE00004480078054400BF00F01AF9801BA8429D
:101FF000FAD370BD08000020F8B502460B46002554
:10200000002400200021E6E0012606FA01F51E6802
:1020100006EA0504AC4273D15E68022E02D05E6807
:10202000122E13D1CF0802F1200656F827004E07D2
:10203000F70E0F26BE40B0434F07FF0E1E69BE408D
:102040003043CF0802F1200646F8270010684F0001
:102050000326BE40B0431E7906F003064F00BE4083
:10206000304310605E68012E08D05E68022E05D0F5
:102070005E68112E02D05E68122E13D190684F0058
:102080000326BE40B0434F00DE68BE403043906040
:10209000506801268E40B0431E79C6F300168E406C
:1020A00030435060D0684F000326BE40B0434F001D
:1020B0009E68BE403043D0605E6806F08056B6F140
:1020C000805FA8D100BF00260096454E366846F4D2
:1020D0008046434F3E603E46366806F48046009692
:1020E00000BF00BF3F4E8F0856F827008E07370FFE
:1020F0000F26BE40B0433C4EB24202D100262EE035
:1021000068E03A4EB24201D1012628E0384EB24290
:1021100001D1022623E0374EB24201D103261EE050
:10212000354EB24201D1042619E0344EB24201D1FB
:10213000052614E0324EB24201D106260FE0314EA0
:10214000B24201D107260AE02F4EB24201D1082641
:1021500005E02E4EB24201D1092600E00A268F0783
:102160003F0FBE4030431F4E8F0846F82700284ED1
:102170003068A0435E6806F48036B6F5803F00D133
:102180002043234E3060361D3068A0435E6806F45D
:102190000036B6F5003F00D120431D4E361D30609D
:1021A000361D3068A0435E6806F48016B6F5801FC1
:1021B00000D12043164E08363060361D3068A043EB
:1021C0005E6806F40016B6F5001F00D12043104EDD
:1021D0000C363060491C1029FFF416AFF8BD000022
:1021E0004438024008380140000002400004024028
:1021F00000080240000C024000100240001402409F
:1022000000180240001C024000200240002402404E
:10221000003C01400AB1816101E00B048361704719
:102220000148006870470000000000200348006873
:1022300003490978084401490860704700000020FC
:102240000800002010B50D48006840F400700B49EC
:1022500008600846006840F480600860084600682E
:1022600040F480700860032000F0CAF8002000F0FD
:1022700007F800F02BF8002010BD0000003C0240E1
:1022800070B504460E4800784FF47A71B1FBF0F057
:102290000C490968B1FBF0F5284600F082FC08B152
:1022A000012070BD102C07D200222146501E00F0E4
:1022B00068F80548046001E00120F2E70020F0E73B
:1022C000080000200C0000200400002008B500BF1A
:1022D000002000902348006840F4804021490860B5
:1022E0000846006800F48040009000BF00BF00BFB7
:1022F00000200090081F006840F08050091F08600F
:102300000846006800F08050009000BF00BF032026
:1023100000F076F8002211466FF00B0000F031F863
:10232000002211466FF00A0000F02BF8002211463F
:102330006FF0090000F025F800221146501F00F050
:1023400020F800221146101F00F01BF80022114651
:10235000901E00F016F800221146501E00F011F8F1
:1023600008BD00004438024000BF00F01F020121F8
:1023700091404209920002F1E022C2F8001100BF30
:1023800070472DE9F05F80460D461646002701F0A4
:1023900097FB074639462A46334601F00700C0F14D
:1023A000070ABAF1040F02D94FF0040A01E0C0F1A4
:1023B000070AD14600F1040ABAF1070F02D24FF022
:1023C000000A01E0A0F1030AD4464FF0010A0AFA1C
:1023D00009FAAAF1010A0AEA020A0AFA0CFA4FF00B
:1023E000010B0BFA0CFBABF1010B0BEA030B4AEAF6
:1023F0000B042146404601F06BFBBDE8F09F000056
:1024000000BF00F00702064B19684FF6FF031940A2
:10241000044B0B4343EA0221014B196000BF704794
:102420000CED00E00000FA0538B5002400BF0020E4
:1024300000901D48006840F080501B490860084625
:10244000006800F08050009000BF00BF01201749D5
:102450000864FFF7E5FE044607E0FFF7E1FE001B16
:10246000B0F57A7F01D9032038BD1148406800F4E7
:102470008030B0F5803FF0D101200C494864FFF76F
:10248000CFFE044607E0FFF7CBFE001BB0F57A7FD6
:1024900001D90320E8E70648406800F40030B0F5B1
:1024A000003FF0D10020DFE74038024000000E423C
:1024B0000070004070B504460D460CB9012070BD97
:1024C0005848006800F00F00A84209D255490D7025
:1024D0000846006800F00F00A84201D00120EEE796
:1024E000207800F0020002281DD1207800F00400BE
:1024F000042805D14C48006840F4E0504A4908607F
:10250000207800F00800082805D14748006840F40A
:102510006040454908604448006820F0F000A16828
:10252000084341490860207800F00100A8B36068C2
:10253000012807D13C4808380068C0F34040B8B9CA
:102540000120BCE76068022802D06068032807D138
:10255000354808380068C0F3406048B90120AEE74C
:10256000314808380068C0F3400008B90120A6E7E8
:102570002D48006820F00300616808432A4908607C
:10258000FFF74EFE064609E0FFF74AFE801B41F2C8
:102590008831884202D9032091E707E02248006889
:1025A00000F00C006168B0EB810FEDD11D480068B0
:1025B00000F00F00A84209D91A490D7008460068BA
:1025C00000F00F00A84201D0012078E7207800F049
:1025D0000400042807D11448006820F4E050E168A2
:1025E000084311490860207800F00800082808D145
:1025F0000D48006820F46040216940EAC1000A49A2
:10260000086000F03DF808490968C1F30311074A62
:10261000515CC840064908600020FFF731FE0020E9
:102620004DE70000003C0240083802402C4F0008F3
:102630000C00002001480068704700000C000020DA
:1026400000B5FFF7F7FF04490968C1F38221034A87
:10265000515CC84000BD0000083802403C4F0008F3
:1026600000B5FFF7E7FF04490968C1F34231034AA7
:10267000515CC84000BD0000083802403C4F0008D3
:102680002DE9F047002400250026A14625480068D2
:1026900000F00C0020B1042805D008283AD105E04C
:1026A000DFF8849039E0DFF8849036E01D48001FA1
:1026B000006800F03F041B48001F006800F4800021
:1026C00078B11A481749091F0968C1F38811A0FB9E
:1026D00001700146224600233846FDF783FD05467A
:1026E0000EE011480F49091F0968C1F38811A0FBCA
:1026F00001700146224600233846FDF773FD05466A
:102700000848001F0068C0F30140401C4600B5FBAC
:10271000F6F902E0DFF8109000BF00BF4846BDE8C0
:10272000F0870000083802400024F400001BB700C6
:10273000F8B504460CB90120F8BD207800F001007E
:10274000002874D0F948006800F00C0004280DD06F
:10275000F648006800F00C00082813D1F348001F69
:10276000006800F48000B0F5800F0BD1EF48083806
:102770000068C0F34040002859D06068002856D156
:102780000120D9E700BF6068B0F5803F08D1E74875
:102790000838006840F48030E449083908601EE0D9
:1027A0006068B0F5A02F0DD1E0480838006840F40B
:1027B0008020DE49083908600846006840F480300F
:1027C00008600CE0D9480838006820F48030D74908
:1027D000083908600846006820F48020086000BFBF
:1027E000606890B1FFF71CFD054606E0FFF718FD95
:1027F000401B642801D903209EE7CC4808380068B4
:10280000C0F340400028F1D011E0FFF709FD054674
:1028100006E0FFF705FD401B642801D903208BE784
:10282000C24808380068C0F340400028F1D1207841
:1028300000F0020002285FD1BC48006800F00C00E4
:1028400058B1BA48006800F00C0008281CD1B748FD
:10285000001F006800F48000B0B9B4480838006870
:10286000C0F3400020B1E068012801D0012063E7F7
:10287000AE480838006820F0F800216940EAC1003D
:10288000AA490839086037E0E06800B30120A84988
:102890000860FFF7C5FC054606E0FFF7C1FC401BDA
:1028A000022801D9032047E7A04808380068C0F390
:1028B00040000028F1D09D480838006820F0F8005A
:1028C000216940EAC10099490839086014E00020F4
:1028D00097490860FFF7A4FC054606E0FFF7A0FC57
:1028E000401B022801D9032026E7904808380068D9
:1028F000C0F340000028F1D1207800F0080008283B
:102900002CD16069A8B101208A490860FFF788FCD2
:10291000054606E0FFF784FC401B022801D903208E
:102920000AE782486C300068C0F340000028F1D00C
:1029300014E000207F490860FFF772FC054606E0BE
:10294000FFF76EFC401B022801D90320F4E677480C
:102950006C300068C0F340000028F1D1207800F00E
:102960000400042870D1002670483830006800F058
:10297000805090B900BF002000906C48383000684B
:1029800040F080506949383108600846006800F01E
:102990008050009000BF00BF01266748006800F427
:1029A0008070B0B96448006840F480706249086083
:1029B000FFF736FC054606E0FFF732FC401B022815
:1029C00001D90320B8E65C48006800F48070002854
:1029D000F2D000BFA068012808D1544868300068D0
:1029E00040F001005149683108601DE0A0680528E9
:1029F0000DD14E486830006840F004004B49683102
:102A000008600846006840F0010008600CE0474894
:102A10006830006820F001004449683108600846C9
:102A2000006820F00400086000BFA068A8B1FFF7AC
:102A3000F7FB054609E0FFF7F3FB401B41F2883145
:102A4000884202D9032077E626E0384868300068DB
:102A5000C0F340000028EED013E0FFF7E1FB05468D
:102A600008E0FFF7DDFB401B41F28831884201D9C5
:102A7000032061E62D4868300068C0F3400000285C
:102A8000EFD1012E07D129483830006820F080505E
:102A900026493831086000BFA069B8B323480068F0
:102AA00000F00C0008285ED0A069022846D1002062
:102AB0001F490866FFF7B4FB054606E0FFF7B0FBC9
:102AC000401B022801D9032036E618480838006860
:102AD000C0F340600028F1D1D4E907010843616ADE
:102AE00040EA81110122A06AC2EB500041EA004194
:102AF0002C20005D41EA00600C49091F086001209C
:102B00000B490866FFF78CFB054607E02DE0FFF751
:102B100087FB401B022801D903200DE60348083833
:102B20000068C0F340600028F1D01EE00838024081
:102B300000004742800E47420070004000200C49D0
:102B40000866FFF76DFB054606E0FFF769FB401BD3
:102B5000022801D90320EFE506480068C0F3406071
:102B60000028F2D101E00120E6E50020E4E50000C4
:102B70000000474200380240042808D14FF0E0210D
:102B8000096941F004014FF0E022116107E04FF0C4
:102B9000E021096921F004014FF0E0221161704742
:102BA000704770B504462546681EB0F1807F01D39A
:102BB00001200FE0681E4FF0E02148610F214FF027
:102BC000FF3000F085FF00204FF0E02188610720F2
:102BD0000861002070BD10B5FFF7E2FF10BD70471F
:102BE000704710B50346002200BF93F83800012853
:102BF00001D1022010BD012083F8380000BF22F06F
:102C0000FF00CC6840EA040222F440708C6840EA7D
:102C1000040222F480604C6840EA040222F400605E
:102C20000C6840EA040222F480500C6940EA040275
:102C300022F400504C6940EA040222F480408C697E
:102C400040EA040222F400408C6940EA0402186859
:102C5000426400BF002083F8380000BF00BFC9E70E
:102C6000024600BF92F83800012801D102207047C7
:102C7000012082F8380000BF022082F83900106875
:102C8000406820F0700013685860106840680B6856
:102C90001843136858601068806820F0800013683B
:102CA0009860106880684B6818431368986001202A
:102CB00082F8390000BF002082F8380000BF00BF52
:102CC000D5E710B504460CB9012010BD94F83900C1
:102CD00028B9002084F83800204600F00DF80220C2
:102CE00084F83900211D206801F020FB012084F8C0
:102CF00039000020E9E7000038B504460E49206895
:102D0000884217D100BF002000900C48006840F0B6
:102D100020000A4908600846006800F02000009082
:102D200000BF00BF002203213720FFF72AFB372016
:102D3000FFF71AFB38BD0000001400404038024085
:102D400001460868C06840F001000A68D060086861
:102D5000006840F001000A6810600020704770476A
:102D600010B5044620680069C0F34000D8B120685F
:102D7000C068C0F34000B0B16FF002002168086184
:102D8000012020762068806900F0030018B12046F9
:102D9000FFF7E5FF05E0204600F0CAF8204600F006
:102DA00081F90020207620680069C0F38000D8B146
:102DB0002068C068C0F38000B0B16FF004002168E3
:102DC0000861022020762068806900F4407018B104
:102DD0002046FFF7C4FF05E0204600F0A9F8204692
:102DE00000F060F90020207620680069C0F3C00080
:102DF000D8B12068C068C0F3C000B0B16FF008005F
:102E000021680861042020762068C06900F0030072
:102E100018B12046FFF7A3FF05E0204600F088F830
:102E2000204600F03FF90020207620680069C0F3BA
:102E30000010D8B12068C068C0F30010B0B16FF0C6
:102E4000100021680861082020762068C06900F41D
:102E5000407018B12046FFF782FF05E0204600F0E1
:102E600067F8204600F01EF90020207620680069EF
:102E700000F0010058B12068C06800F0010030B1D6
:102E80006FF0010021680861204600F033F92068E6
:102E90000069C0F3C01058B12068C068C0F3C0100A
:102EA00030B16FF08000216808612046FFF797FE7F
:102EB00020680069C0F3801058B12068C068C0F372
:102EC000801030B16FF0400021680861204600F0AA
:102ED0001BF920680069C0F3401058B12068C06831
:102EE000C0F3401030B16FF0200021680861204627
:102EF000FFF776FE10BD000010B586B004460A4903
:102F0000206888420DD14FF4C04001900220029009
:102F10000020039004900120059001A90348FFF7C9
:102F20006BF806B010BD0000000001400010024028
:102F3000704770B504460D46164600BF94F8380039
:102F4000012801D1022070BD012084F8380000BFA3
:102F5000022084F8390036B1042E1BD0082E31D05F
:102F60000C2E5ED145E02946206801F05FFA20680A
:102F7000806940F00800216888612068806920F03D
:102F800004002168886120688069296908432168F4
:102F9000886147E02946206801F080FA206880694E
:102FA00040F40060216888612068806920F48060B6
:102FB0002168886120688069296940EA01202168C8
:102FC00088612FE02946206801F0A4FA2068C069D2
:102FD00040F008002168C8612068C06920F0040042
:102FE0002168C8612068C069296908432168C861EF
:102FF00018E02946206801F0C9FA2068C06940F449
:1030000000602168C8612068C06920F48060216880
:10301000C8612068C069296940EA01202168C86147
:1030200000E000BF00BF012084F8390000BF00208D
:1030300084F8380000BF00BF85E710B504460CB91E
:10304000012010BD94F8390028B9002084F8380018
:10305000204600F00DF8022084F83900211D206878
:1030600001F064F9012084F839000020E9E700004C
:1030700008B50A4A016891420FD100BF00210091B2
:103080000749096841F00101054A116011460968C4
:1030900001F00101009100BF00BF08BD0000014028
:1030A000443802407047000030B504460D46012206
:1030B0002946206801F0ACF90C492068884203D009
:1030C0000B492068884201D1012000E0002028B18E
:1030D0002068406C40F40040216848642068006823
:1030E00040F0010021680860002030BD0000014070
:1030F0000004014010B504460248844201D101F0A9
:103100005BF810BD08010020704770472DE9F047BB
:103110000446206805682068C668206847694FF043
:103120000008C14605F00F08B8F1000F0AD105F0FC
:10313000200038B106F0200020B1204601F0E4FA6A
:10314000BDE8F087B8F1000F6DD007F0010018B9A5
:1031500006F49070002866D005F0010030B106F446
:10316000807018B1E06B40F00100E06305F00400EE
:1031700030B107F0010018B1E06B40F00200E063ED
:1031800005F0020030B107F0010018B1E06B40F02B
:103190000400E06305F0080030B107F0010018B149
:1031A000E06B40F00800E063E06B68B305F02000DE
:1031B00028B106F0200010B1204601F0A5FA2068E1
:1031C0004069C0F38019E06B00F0080010B9B9F154
:1031D000000F22D0204601F06DFA2068406900F00F
:1031E0004000B0B12068406920F04000216848618B
:1031F000606B50B11748616B0865606BFEF7EEFCC1
:1032000010B1606B016D88470CE02046FFF77DFF31
:1032100008E02046FFF779FF04E02046FFF775FF3E
:103220000020E0638CE705F0800030B106F08000FC
:1032300018B1204601F06AFC82E705F0400030B189
:1032400006F0400018B1204601F044FA78E700BFCC
:1032500076E70000FD45000810B504460CB90120D2
:1032600010BDA06900B100E000BF94F8390028B992
:10327000002084F83800204600F028F8242084F844
:1032800039002068C06820F400502168C8602046DA
:1032900001F088FA2068006920F4904021680861F4
:1032A0002068406920F02A00216848612068C068D1
:1032B00040F400502168C8600020E063202084F8BA
:1032C000390084F83A000020CAE7000010B586B043
:1032D000044688492068884249D100BF00200090F8
:1032E0008548006840F0100083490860084600687F
:1032F00000F01000009000BF00BFC020019002202D
:10330000029001200390032004900720059001A95A
:103310007A48FEF771FE7A487A4908604FF00060FB
:103320004860002177488160C1604FF4806101618D
:10333000002141618161C1614FF4003101620021CE
:103340004162FEF77FFD20B140F21D116EA001F039
:10335000CFFC00BF6B486063846300BF0022012183
:103360002520FFF70EF82520FEF7FEFFC0E06D498F
:103370002068884220D100BF002000905E48001FD6
:10338000006840F400305C49091F08600846006886
:1033900000F40030009000BF00BF602001900220C8
:1033A000029001200390032004900720059001A9BA
:1033B0005D48FEF721FE9BE05C49206888424CD1C5
:1033C00000BF002000904C48001F006840F480209F
:1033D0004949091F08600846006800F480200090F1
:1033E00000BF00BF4FF44070019002200290012006
:1033F0000390032004900720059001A94A48FEF796
:10340000FBFD4B484B4908604FF0006048600021CD
:1034100048488160C1604FF48061016100214161D1
:103420008161C1614FF40031016200214162FEF708
:1034300009FD20B140F2611133A001F059FC00BF39
:103440003C486063846300BF002201212720FEF70F
:1034500098FF2720FEF788FF4AE037492068884216
:1034600046D100BF002000902348006840F02000B3
:10347000214908600846006800F02000009000BF65
:1034800000BF4FF48440019002200290012003907D
:10349000032004900820059001A92848FEF7ACFD00
:1034A00017481838264908608005486000212448DC
:1034B0008160C1604FF480610161002141618161DF
:1034C000C16101624162FEF7BDFC20B14FF4C771DA
:1034D0000DA001F00DFC00BF19486063846300BFBC
:1034E000002202214720FEF74CFF4720FEF73CFF59
:1034F00006B010BD001001404438024000040240F4
:1035000040640240440200202E2E2F5372632F731A
:10351000746D3332663478785F68616C5F6D737098
:103520002E63000000440040000C024000480040B0
:1035300028600240A402002000140140001802404C
:103540000403002077B581B00446154694F83A008C
:10355000202850D1029800B115B9012004B070BDE7
:1035600000BF94F83800012801D10220F6E70120BD
:1035700084F8380000BF0298A062A5850020E063AF
:10358000222084F83A001D48616BC8631C48616BB7
:1035900008641C48616BC8640020616B086502AE5A
:1035A00032682368191D2B46606BFEF7C1FC00BF13
:1035B000002000902068006800902068406800901B
:1035C00000BF00BF00BF002084F8380000BF2068A3
:1035D000C06840F480702168C8602068406940F08D
:1035E0000100216848612068406940F0400021687E
:1035F00048610020B2E70220B0E700006146000801
:10360000A74600081146000870477047704700BF82
:10361000FEE7B0F900308B4201DD0B4601E0B0F966
:1036200000300380B0F90030934201DA134601E024
:10363000B0F9003003807047B4EEE00AF1EE10FA02
:1036400002DDF0EE601A01E0F0EE401AB0EE610A21
:10365000B4EEC10AF1EE10FA02D2F0EE411A01E026
:10366000F0EE401AB0EE610A7047884201DD0B4669
:1036700000E003461846904201DA134600E0034694
:103680001846704710B51048104908600920486076
:1036900000210E4881604FF04071C1604FF48031CD
:1036A000016109014161002101760121417600217A
:1036B0008176C17601774177FEF746F918B1E621A8
:1036C00003A001F015FB10BD00640040A400002021
:1036D0002E2E2F5372632F6D61696E2E63000000D2
:1036E00008B500BF002000901A48006840F40010A0
:1036F000184908600846006800F40010009000BFF8
:1037000000BF00BF002000900846006840F4800021
:1037100008600846006800F48000009000BF00BF09
:10372000002211460C20FEF72CFE0C20FEF71CFE9A
:10373000002211463920FEF724FE3920FEF714FE40
:10374000002201213A20FEF71CFE3A20FEF70CFE73
:1037500008BD00003038024000B587B000BF00202F
:1037600001903648006840F040003449086008463F
:10377000006800F04000019000BF00BF00BF0020C3
:1037800001900846006840F00100086008460068A3
:1037900000F00100019000BF00BF00BF00200190B9
:1037A0000846006840F0020008600846006800F023
:1037B0000200019000BF00BF00BF0020019008463A
:1037C000006840F0080008600846006800F0080043
:1037D000019000BF00BF00BF0020019008460068B4
:1037E00040F0800008600846006800F0800001900A
:1037F00000BF00BF00BF002001900846006840F0F5
:10380000100008600846006800F01000019000BF3A
:1038100000BF00224FF400510948FEF7FBFC4FF4B3
:10382000005002900120039000200490059002A90E
:103830000348FEF7E1FB07B000BD0000303802404E
:103840000018024000B591B02F4830490860B320FD
:10385000486000212D48816044F61F61C16000214D
:1038600001614161FFF7E9FB18B1FB2128A001F0DC
:103870003FFA00200F9010900FA92448FFF7F0F9AD
:1038800020B14FF4817122A001F032FA602008903B
:103890004FF47A70099000200A900B9004200C904D
:1038A00000200D900E90082208A91848FFF741FB50
:1038B00020B14FF4877116A001F01AFA0C2208A962
:1038C0001248FFF736FB20B140F2131110A001F0AF
:1038D0000FFA0020019002900390049005904FF49D
:1038E000005006900020079001A90848FFF779F9D9
:1038F00020B140F21F1106A001F0FAF90348FFF7CA
:10390000FBFA11B000BD000000000140CC00002017
:103910002E2E2F5372632F6D61696E2E630000008F
:103920001CB511481149086040F2833048600021FD
:103930000E48816040F2E731C160FFF7C2F920B163
:103940004FF499710AA001F0D3F900200090019082
:1039500069460648FFF784F920B140F2391104A006
:1039600001F0C6F91CBD0000001400400801002051
:103970002E2E2F5372632F6D61696E2E630000002F
:1039800010B50D480D4908600D48486000210B48EE
:103990008160C1604FF4806101610C2141610021AF
:1039A0008161C161FFF758FC20B14FF4A67105A0F9
:1039B00001F09EF910BD00000010014044010020FC
:1039C000A08601002E2E2F5372632F6D61696E2E1B
:1039D0006300000010B50C480C4908604FF4E1305A
:1039E0004860002109488160C16001610C2141618A
:1039F00000218161C161FFF72FFC20B140F25F110E
:103A000003A001F075F910BD0044004084010020BE
:103A10002E2E2F5372632F6D61696E2E630000008E
:103A200010B50C480C4908604FF4E13048600021A3
:103A300009488160C16001610C21416100218161FF
:103A4000C161FFF709FC20B14FF4B97103A001F087
:103A50004FF910BD00480040C40100202E2E2F5306
:103A600072632F6D61696E2E6300000010B50C4803
:103A70000C4908604FF4E13048600021094881603A
:103A8000C16001610C21416100218161C161FFF7C9
:103A9000E3FB20B140F2851103A001F029F910BD2C
:103AA00000140140040200202E2E2F5372632F6D4C
:103AB00061696E2E6300000000BFFEE770470000E2
:103AC00002480068C0F30220704700000CED00E0DF
:103AD00010B5002807DA0A07140E054A00F00F0394
:103AE0001B1FD45403E00A07130E024A135410BDDF
:103AF00018ED00E000E400E00248034908600348D4
:103B000048607047FD3B0008740000204D3C0008F1
:103B100070B505460E4614466842801B00EE100A3A
:103B2000B8EEC00A84ED1F0A94ED210AD4ED1F0AF5
:103B300030EE200A84ED210A94ED1C0AD4ED1F0A10
:103B400020EE200A84ED180A94ED1D0AD4ED210A16
:103B500020EE200A84ED190A94ED1F0AD4ED200A04
:103B600030EE600AD4ED1E0A20EE200A84ED1A0A17
:103B700094ED180AD4ED190A30EE200AD4ED1A0A91
:103B800030EE200ABDEEC00A10EE100A01B26C2021
:103B90000153054A514204F16C00FFF73AFD94EDE0
:103BA0001F0A84ED200A70BD78ECFFFF084951F828
:103BB000201081ED000A064A411C52F82110C1ED87
:103BC000000A811C52F8211081ED001A7047000094
:103BD00038040020084951F8201081ED000A064AF7
:103BE000411C52F82110C1ED000A811C52F821102D
:103BF00081ED001A704700001005002031B52DED51
:103C0000020B82B0054602ACE0788DF80000A07887
:103C10008DF8010060788DF8020020788DF803009F
:103C200003ACE0788DF80400A0788DF8050060788A
:103C30008DF8060020788DF8070000242B46082216
:103C40006946A12001F026F905B030BD37B581B035
:103C5000154601AC60788DF8000020788DF80100E1
:103C600002AC60788DF8020020788DF80300002403
:103C70002B4604226946A12001F00CF93FBD00004B
:103C800010B50A78120212B24B781A43184B1A80F8
:103C90000A79120212B24B791A438280144AB2F99D
:103CA0000020144BB3F90030D21A134B9A4202DAB7
:103CB000828D521C82850F4AB2F900200C4BB3F959
:103CC0000030D21A0C4B9A4202DA828D521E828543
:103CD000074AB2F90020074B1A80828D044BB3F9D2
:103CE00000304FF4005404FB023212B2C28010BD07
:103CF000560000205400002090E8FFFF7CB50446E9
:103D00000D4600F0D3F82046FCF7D6FE00200090C8
:103D10000190B4F90830B4F9382040F2FF11284678
:103D2000FCF764FD7CBD00009FED580A584880ED0B
:103D3000060A9FED560A80ED080ABAEE000A80EDE9
:103D4000030A0C30534908609FED500A0C3880ED8F
:103D5000040A10304860BEEE000A103880ED050AF3
:103D6000143088609FED490A143880ED070A00205E
:103D7000474908814880C880888040F62C10088018
:103D8000454888624FF42F70896A08804FF6445086
:103D90003F49896A488000203D4988859FED3B0A5C
:103DA000084680ED120A9FED390A80ED140A9FED56
:103DB000370A80ED0F0A3C303649C8609FED330A60
:103DC0003C3880ED100A403008619FED300A4038E1
:103DD00080ED110A443048619FED2C0A443880ED93
:103DE000130A002101874186C186818640F67870DA
:103DF0002749088629492648816541F28831806D26
:103E000001804EF678412248806D41800021204893
:103E1000A0F85C10A0F86C109FED210A80ED1C0A40
:103E20009FED1A0A80ED1D0ABAEE030A80ED1E0A04
:103E30009FED160A80ED1F0A9FED140A80ED200AFF
:103E40009FED120A80ED210A9FED100A80ED220AF3
:103E50009FED0E0A80ED180A9FED0C0A80ED190AFD
:103E60009FED0A0A80ED1A0A00200949A1F8900086
:103E7000A1F8920040F2FF10A1F894000948C1F89F
:103E80008C000948C1F8980070470000000000004D
:103E900074040020100500204C0000205000002079
:103EA000CDCCCCBE08060020D53B000810B512488A
:103EB000B0F8900000F62C1000B20F4908800846B8
:103EC000B0F8920000F6787000B20886B1F90000F0
:103ED00040F6D40240F63221FFF7C7FB06490880BE
:103EE000B1F9300040F6E44241F2F811FFF7BDFBB2
:103EF0000149088610BD00007404002038B505464D
:103F00000C466068006800900098A0F20120062826
:103F100036D2DFE800F0030A131C252EA26802F156
:103F200008012868FCF7B8FC2BE0A26802F1080140
:103F30002A6802F16000FCF7AFFC22E0A26802F1FF
:103F400008012A6802F19000FCF7A6FC19E0A268BB
:103F500002F108012A6802F13000FCF79DFC10E034
:103F6000A26802F108016A6802F13000FFF788FEDA
:103F700007E0A26802F108016868FFF781FE00E02F
:103F800000BF00BF38BD704700B589B06846FDF777
:103F900099F9242269460648FCF755F96846FDF769
:103FA00091F9242269460348FCF74DF909B000BD98
:103FB00020060020440600207047000070B52DED5B
:103FC000028BB0EE408A04460E4600253146B0EE24
:103FD000480A204600F0CAFE9FED1B0A1B4880EDF0
:103FE000000A00BF0BE004EB850090ED000A1748C3
:103FF000D0ED000A30EE200A80ED000A6D1C144856
:1040000000788542EFDB1148D0ED000A10480078B7
:1040100000EE100AB8EE400A80EE801A0D4880EDDE
:10402000001A90ED000A94F8210004EB800080ED66
:10403000000A32460849204600F078FE054890ED17
:10404000000ABDEC028B70BD000000009000002053
:10405000980000208C0000209400002010B5FEF78E
:10406000E5F8FEF7B8FD10BD10B592B000BF002016
:1040700000903248006840F080503049086008469F
:10408000006800F08050009000BF00BF00BF00201B
:1040900000902B48006840F44040294908600846D9
:1040A000006800F44040009000BF00BF012006906F
:1040B0000004079002200C9041050D9106210E91FD
:1040C000B4210F91022110910421119106A8FEF74D
:1040D0002FFB18B1B0211BA000F00AFEFEF7A4F9D7
:1040E00018B1B72117A000F003FE0F2001900220A5
:1040F0000290002003904FF4A05004904FF48050A1
:104100000590052101A8FEF7D5F918B1C5210DA02C
:1041100000F0EEFDFEF78EFA4FF47A71B0FBF1F489
:104120002046FEF73EFD0420FEF726FD0022114644
:10413000501EFEF726F912B010BD000040380240B4
:10414000007000402E2E2F5372632F6D61696E2E0A
:10415000630000001448006840F4700012490860D1
:104160001248006840F001001049086000200F4923
:10417000083108600D4800680D4908400B49086087
:104180000C48091D0860081F006820F48020091FE2
:104190000860002005490C3108604FF000600249BA
:1041A000803908607047000088ED00E00038024068
:1041B000FFFFF6FE103000241CB54F48007A01289E
:1041C00002D0022839D139E04B494C48FCF716FEA1
:1041D0004B494C48FFF792FD4B489FED4C1ADFEDE1
:1041E0004C0AB1EE080AD0F8D0100620884746489D
:1041F0009FED461ADFED460AB1EE080AD0F8D0105E
:104200000020884740489FED411ADFED410AB1EE9A
:10421000080AD0F8D010092088473B489FED3B1A88
:10422000DFED3B0AB1EE080AD0F8D0100320884732
:104230004FF47A703749C86308645BE031489FEDFA
:10424000331ADFED320A9FED310AD0F898100320BF
:1042500088472C489FED2D1ADFED2C0A9FED2B0A85
:10426000D0F898100020884727489FED281ADFEDE6
:10427000270A9FED260AD0F8D0100620884722484A
:104280009FED221ADFED210A9FED200AD0F8D01011
:10429000002088471C489FED1D1ADFED1C0A9FED8A
:1042A0001B0AD0F8D0100920884717489FED171A2D
:1042B000DFED160A9FED150AD0F8D01003208847CD
:1042C00000200090034602464FF4007101900C4814
:1042D000FCF78CFA002000900346024640F2FF11E2
:1042E00001900748FCF782FA4FF47A700949C863D5
:1042F000086400BF00BF1CBDA805002058000020B6
:10430000A4000020740400206403002000000000CA
:10431000CDCCCC3D0000014010B5FFF74DFF024869
:10432000FEF71EFD10BD00000801002000220268FB
:104330002C4B98420ED0B0F1804F0BD02A4B9842B4
:1043400008D02A4B984205D0294B984202D0294BDD
:10435000984201D1012300E000231BB122F070023A
:104360004B681A431F4B984220D0B0F1804F1DD0AC
:104370001D4B98421AD01D4B984217D01C4B9842A7
:1043800014D01C4B984211D01B4B98420ED01B4BA3
:1043900098420BD01A4B984208D01A4B984205D03D
:1043A000194B984202D0194B984201D1012300E0E9
:1043B00000231BB122F44072CB681A4302608B6861
:1043C000C3620B688362074B984202D0094B984244
:1043D00001D1012300E000230BB10B69036301232A
:1043E00043617047000001400004004000080040A5
:1043F000000C004000040140004001400044014026
:104400000048014000180040001C0040002000400F
:1044100030B50023012404FA01F3046A9C430462CA
:10442000046A02FA01F52C43046230BD30B5002461
:1044300000220023056A25F001050562026A43682F
:10444000846924F0700424F003040D682C4322F0E6
:1044500002028D682A430F4DA84202D00E4DA84299
:1044600001D1012500E000256DB122F00802CD68E0
:104470002A4322F0040223F4807323F400734D696D
:104480002B438D692B43436084614D684563026211
:1044900030BD0000000001400004014030B50024A0
:1044A00000220023056A25F010050562026A4368B0
:1044B000846924F4E04424F440740D6844EA05243B
:1044C00022F020028D6842EA0512104DA84202D067
:1044D0000F4DA84201D1012500E0002585B122F051
:1044E0008002CD6842EA051222F0400223F4806384
:1044F00023F400634D6943EA85038D6943EA85032C
:10450000436084614D688563026230BD00000140F4
:104510000004014030B5002400220023056A25F480
:1045200080750562026A4368C46924F0700424F04F
:1045300003040D682C4322F400728D6842EA0522C0
:10454000104DA84202D0104DA84201D1012500E033
:10455000002585B122F40062CD6842EA052222F4EA
:10456000806223F4805323F400534D6943EA05131A
:104570008D6943EA05134360C4614D68C5630262F7
:1045800030BD0000000001400004014030B50022B1
:1045900000230024056A25F480550562036A4468F7
:1045A000C26922F4E04222F440720D6842EA052218
:1045B00023F400538D6843EA05330A4DA84202D024
:1045C000094DA84201D1012500E0002525B124F4C0
:1045D00080444D6944EA85144460C2614D680564B5
:1045E000036230BD00000140000401400020024988
:1045F00008604860704700006800002070B50546FC
:10460000AC6B0020E085E0842046FEF77EFD70BDA7
:1046100070B506460025B46B20684069C0F3C0152C
:1046200094F83900212805D125B10020E0842046E6
:1046300000F060F820684069C0F3801594F83A00F3
:10464000222805D125B10020E085204600F032F86F
:10465000E06B40F01000E0632046FEF756FD70BDB1
:1046600070B50546AC6B2868006800F48070B0B97E
:104670000020E0852068C06820F480702168C86050
:104680002068406920F00100216848612068406985
:1046900020F0400021684861202084F83A0020463C
:1046A000FEF7B2FF70BD70B50446A56B2846FEF755
:1046B000ACFF70BD0168C96821F490710268D160D7
:1046C0000168496921F0010102685161202180F8E7
:1046D0003A10704710B504462068C06820F04000CA
:1046E0002168C860202084F839002046FEF78EFF3C
:1046F000002010BD0168C96821F0C0010268D160C6
:10470000202180F83910704770B5044694F83A00BB
:10471000222844D1A068B0F5805F13D1A56A206932
:1047200040B920684068C0F308002880A06A801C57
:10473000A06219E020684068C0B22880A06A401CCE
:10474000A06211E0206938B920684068C1B2A26A4D
:10475000501CA062117007E02068406800F07F01E3
:10476000A26A501CA0621170E08D401E80B2E085EC
:1047700098B92068C06820F490702168C8602068EB
:10478000406920F0010021684861202084F83A0047
:104790002046FEF739FF002070BD0020FCE7022014
:1047A000FAE700002DE9F04104460025206805697C
:1047B00025F44055E0680543206805612068C56818
:1047C00049F20C6085432169A06808436169084388
:1047D000E169084305432068C5602068456925F400
:1047E0004075A069054320684561E069B0F5004F58
:1047F0007ED1C4492068884203D0C34920688842DA
:104800005DD1FDF72DFF00EBC00101EB00106168E9
:104810004900B0FBF1F06421B0FBF1F00601FDF7B7
:104820001FFF00EBC00101EB001061684900B0FB05
:10483000F1F7FDF715FF00EBC00101EB0010616817
:104840004900B0FBF1F06421B0FBF1F000EBC001D6
:1048500001EB0010A7EB8000322101EBC0006421C6
:10486000B0FBF1F000F0F80006EB4006FDF7F8FEB3
:1048700000EBC00101EB001061684900B0FBF1F7EB
:10488000FDF7EEFE00EBC00101EB0010616849008E
:10489000B0FBF1F06421B0FBF1F000EBC00101EBE3
:1048A0000010A7EB8000322101EBC0006421B0FBB7
:1048B000F1F000F0070030442168886020E1FDF746
:1048C000BFFE00EBC00101EB001061684900B0FBC6
:1048D000F1F06421B0FBF1F00601FDF7B1FE00EB51
:1048E000C00101EB001061684900B0FBF1F700E086
:1048F00045E0FDF7A5FE00EBC00101EB001061688B
:104900004900B0FBF1F06421B0FBF1F000EBC00115
:1049100001EB0010A7EB8000322101EBC000642105
:10492000B0FBF1F000F0F80006EB4006FDF788FE62
:1049300000EBC00101EB001061684900B0FBF1F72A
:10494000FDF77EFE00EBC00101EB0010616849003D
:10495000B0FBF1F06421B0FBF1F000EBC00101EB22
:104960000010A7EB8000322101EBC0006421B0FBF6
:10497000F1F000F00700304421688860C0E0614930
:104980002068884203D06049206888425CD1FDF7E6
:1049900067FE00EBC00101EB001061688900B0FB0D
:1049A000F1F6FDF75DFE00EBC00101EB0010616860
:1049B0008900B0FBF1F06421B0FBF1F000EBC00125
:1049C00001EB0010A6EB8000322101EB0010642106
:1049D000B0FBF1F000F0F006FDF742FE00EBC00185
:1049E00001EB001061688900B0FBF1F06421B0FBBD
:1049F000F1F006EB0016FDF733FE00EBC00101EB12
:104A0000001061688900B0FBF1F7FDF729FE00EBAB
:104A1000C00101EB001061688900B0FBF1F0642176
:104A2000B0FBF1F000EBC00101EB0010A7EB800040
:104A3000322101EB00106421B0FBF1F000F00F0017
:104A40003044216888605BE0FDF7FAFD00EBC001AF
:104A500001EB001061688900B0FBF1F6FDF7F0FD95
:104A600000EBC00101EB001061688900B0FBF1F0C0
:104A70006421B0FBF1F000EBC00101EB0010A6EBEC
:104A80008000322101EB00106421B0FBF1F000F056
:104A9000F006FDF7D5FD00EBC00101EB00106168E9
:104AA0008900B0FBF1F06421B0FBF1F006EB0016D9
:104AB000FDF7C6FD00EBC00101EB00106168890045
:104AC000B0FBF1F7FDF7BCFD00EBC00101EB0010FE
:104AD00061688900B0FBF1F06421B0FBF1F000EBFC
:104AE000C00101EB0010A7EB8000322101EB0010A8
:104AF0006421B0FBF1F000F00F00304421688860C1
:104B0000BDE8F0810010014000140140014691F819
:104B1000390021282CD18868B0F5805F0FD10A6A4E
:104B20001088C0F308000B685860086918B9086A53
:104B3000801C086209E0086A401C086205E00B6AF4
:104B4000581C086218780B685860C88C401E80B2E8
:104B5000C88458B90868C06820F080000B68D86025
:104B60000868C06840F040000B68D86000207047BB
:104B70000220FCE710B5034800F09EF80148FEF75C
:104B8000C5FA10BD4401002010B50248FEF7BEFA78
:104B900010BD0000C401002010B5034800F008F863
:104BA0000148FEF7B3FA10BD0402002000BFFEE783
:104BB00038B5044600BF00200090206800680090CF
:104BC00020684068009000BF00BF606B00684068CC
:104BD000012801D1FBF732FD132202492046FEF7DE
:104BE000B1FC38BDF405002070B505460C462846DA
:104BF000FBF7CEFD2846FCF7BAFF02212846FCF75A
:104C00007AFBFBF733FEFBF7DBFD0348A0600348AC
:104C100060600348206070BD5C05002040050020F6
:104C20002805002010B51B491B48FBF7A1FDFFF725
:104C3000ABF9FEF761FF19491948FFF7D5FFFBF7FC
:104C40003FFEFFF771F8FCF717F8FFF7CFFCFCF712
:104C50001FFB1448FEF774F808211348FEF724FAE6
:104C60000C211148FEF720FA10480068C06840F097
:104C700010000E490968C8600D480068C06840F01F
:104C800010000B490968C860012251030948FDF76B
:104C9000C1FA10BD740400206403002068040020E1
:104CA000A400002008010020CC00002044010020C6
:104CB000040200200018024038B5044600BF00205E
:104CC000009020680068009020684068009000BF55
:104CD00000BF606B00684068012801D1FBF742FF0C
:104CE000132202492046FEF72DFC38BD9405002012
:104CF00000BFFEE702E008C8121F08C1002AFAD16F
:104D000070477047002001E001C1121F002AFBD14B
:104D10007047F0EE400AF5EEC00AF1EE10FA02D24A
:104D2000B1EE600A7047B0EE600AFBE710B590F88C
:104D3000213090F82040A34202D19FED0B0A10BD14
:104D400090F8203000EB830393ED000A81ED000A18
:104D500090F820305B1C93FBF2F402FB143380F8D4
:104D60002030B7EE000AEAE700000000F0EE400A4B
:104D700090F82120521C92FBF1F301FB132290F8D2
:104D800020309A4202D19FED0A0A704710F8212F75
:104D9000521C92FBF1F301FB1322027010F821293F
:104DA00000EB8202C2ED000AB7EE000AEDE7000058
:104DB00000000000F0EE400A0A4890ED001AF7EEFD
:104DC000001A31EEC11A21EE201AD0ED001A064861
:104DD00090ED002A01EE821AB0EE410AC0ED000A01
:104DE000704700008400002080000020FDF72AFAB0
:104DF000FFF73AF9FEF7B0FCFEF772FCFEF7C0FDD4
:104E0000FEF740FCFEF78CFDFEF7E4FDFEF708FE22
:104E1000FEF72CFEFEF716FDFFF704FF3220FDF72C
:104E2000D7F800BFFEE70000F0B50B30154D20F0BD
:104E300007010024144A0FE003688B420BD38B4216
:104E400005D95E1A43184768C3E9006700E0436864
:104E5000136002C004E0021D10680028ECD1204657
:104E6000002802D1286808B10020F0BD064A074892
:104E70001060074A121A22F00702C0E9002401203C
:104E80002860D7E7A00000209C0000206C060020CE
:104E900068080020F0B588B005460E4614461F4647
:104EA0001C2C01DD08B0F0BD0021E01C0DF8001045
:104EB00088208DF800008DF801508DF80240002305
:104EC00005E0F15CD81C0DF80010581CC3B2A342D9
:104ED000F7DB00230BE0E01C1DF800001DF80310B9
:104EE0000844C1B2E01C0DF80010581CC3B2E01C0D
:104EF0008342F0DB002306E01DF80300394600F092
:104F000007F8581CC3B2201D8342F5DB00BFC9E778
:104F100000BF0A681268C2F3C012002AF9D00A68FA
:104F200050607047000610160006101600000000C2
:104F30000000000001020304060708090000000049
:104F400001020304644F000800000020A4000000D8
:104F5000F44C000808500008A4000020C40B000016
:104F6000044D0008000000001000000001000000D7
:104F70000024F4005A5A0000000000000000000065
:104F80000000050000004041000080BF000000BF9D
:104F9000CDCC4CBE00000000008009440000AF43AF
:104FA00000007A4300000000000000000000000044
:104FB00000000000000000000000000000000000F1
:104FC00000000000000000000000000000000000E1
:104FD00000000000000000000000000000000000D1
:104FE0000000000000000000EC51B83E000000008E
:104FF00000000000000000000000000008000000A9
:085000000000000000000000A8
:04000005080001AD41
:00000001FF
